:1000000000200020F9000000AF050000AF0500004F
:10001000AF050000AF050000AF050000AD05000012
:10002000AD050000AD050000AD050000AF05000006
:10003000AF050000AD050000AF050000B1050000F0
:10004000AF050000AF050000AF050000AF050000E0
:10005000AF050000AF050000AF050000AF050000D0
:10006000AF050000AF050000AF050000AF050000C0
:10007000AF050000AF050000AF050000AF050000B0
:10008000410B0000AF0500002D0D0000AF05000082
:10009000D90E0000AF050000AF050000AF0500005D
:1000A000AF050000AF050000AF050000AF05000080
:1000B000AF050000AF050000451C00005D1C0000FE
:1000C000751C00008D1C0000AF0500008D110000A4
:1000D000AF050000AF050000AF050000AF05000050
:1000E000390600008906000011070000CD07000056
:1000F00051080000F91A00004A4B4CF2205210B58A
:100100001A804DF628121A80102223F80E2C00F0C7
:1001100057FA454B454A1A60454A5A60454B1A689A
:1001200012F4807204D144490A604FF4A8521A6054
:10013000424B1A7802F00802D2B21AB11A7842F091
:1001400008021A7000233E4A3E483F4C02E019590B
:100150009950043399188142F9D33C4B3C4A002111
:1001600001E043F8041B9342FBD33A4B00221A6090
:10017000394B0A221A70394B24221A70A02203F834
:10018000012C374A137803F00203DBB2002BF9D0BD
:10019000334A137803F01003DBB2002BF9D1304A55
:1001A000137803F00C03082BFAD12E4B03221A709C
:1001B00040225A702A4A137803F02003DBB2002B46
:1001C000F9D0274A137803F04003DBB2002BF9D0B3
:1001D000254A264B1A60264B20221A70204A137893
:1001E00003F00C030C2BFAD1224B02221A60224A94
:1001F00043F8442C214B224A1A60072243F8042C6E
:1002000062B600F04DFB0C4B1B68DB0702D51D48A6
:1002100000F036FB01F02EFE00F0D2F901F0A8FD4F
:10022000FEE700BF0E20054038800440823F0400F6
:100230000100002B10D0034014D0034002D007402F
:1002400000E4FF1FB8E9FF1FF8290000B8E9FF1F0D
:100250007CEDFF1F08ED00E0005006400140064025
:10026000064006400440064000000301448004406C
:100270000040064048800440C010050014E000E043
:10028000FF76010069838252FFFFFFFFFFFFFFFF40
:10029000FFFFFFFFFFFFFFFFFFFFFFFFFFFFFFFF6E
:1002A000FFFFFFFFFFFFFFFFFFFFFFFFFFFFFFFF5E
:1002B000FFFFFFFFFFFFFFFFFFFFFFFFFFFFFFFF4E
:1002C000FFFFFFFFFFFFFFFFFFFFFFFFFFFFFFFF3E
:1002D000FFFFFFFFFFFFFFFFFFFFFFFFFFFFFFFF2E
:1002E000FFFFFFFFFFFFFFFFFFFFFFFFFFFFFFFF1E
:1002F000FFFFFFFFFFFFFFFFFFFFFFFFFFFFFFFF0E
:10030000FFFFFFFFFFFFFFFFFFFFFFFFFFFFFFFFFD
:10031000FFFFFFFFFFFFFFFFFFFFFFFFFFFFFFFFED
:10032000FFFFFFFFFFFFFFFFFFFFFFFFFFFFFFFFDD
:10033000FFFFFFFFFFFFFFFFFFFFFFFFFFFFFFFFCD
:10034000FFFFFFFFFFFFFFFFFFFFFFFFFFFFFFFFBD
:10035000FFFFFFFFFFFFFFFFFFFFFFFFFFFFFFFFAD
:10036000FFFFFFFFFFFFFFFFFFFFFFFFFFFFFFFF9D
:10037000FFFFFFFFFFFFFFFFFFFFFFFFFFFFFFFF8D
:10038000FFFFFFFFFFFFFFFFFFFFFFFFFFFFFFFF7D
:10039000FFFFFFFFFFFFFFFFFFFFFFFFFFFFFFFF6D
:1003A000FFFFFFFFFFFFFFFFFFFFFFFFFFFFFFFF5D
:1003B000FFFFFFFFFFFFFFFFFFFFFFFFFFFFFFFF4D
:1003C000FFFFFFFFFFFFFFFFFFFFFFFFFFFFFFFF3D
:1003D000FFFFFFFFFFFFFFFFFFFFFFFFFFFFFFFF2D
:1003E000FFFFFFFFFFFFFFFFFFFFFFFFFFFFFFFF1D
:1003F000FFFFFFFFFFFFFFFFFFFFFFFFFFFFFFFF0D
:10040000FFFFFFFFFFFFFFFFFFFFFFFFFEFFFFFFFD
:1004100008B54EF6B810074BC1F6FF701B1A062B35
:1004200000D808BD40F20003C0F20003002BF8D052
:100430009847F6E7BBE9FF1F08B54EF6B8104EF631
:10044000B813C1F6FF70C1F6FF731B1A9B1003EBC4
:10045000D373591000D108BD40F20002C0F200026F
:10046000002AF8D09047F6E710B54EF6B814C1F65A
:10047000FF74237873B9FFF7CBFF40F20003C0F29B
:1004800000032BB142F6F810C0F20000AFF3008079
:100490000123237010BD00BF08B540F20003C0F275
:1004A00000034BB142F6F8104EF6BC11C0F200004A
:1004B000C1F6FF71AFF300804EF6B810C1F6FF70C1
:1004C00003682BB140F20003C0F2000303B1984768
:1004D000BDE80840FFF7B0BF024B1878012100F0DB
:1004E00033BA00BF04E4FF1F10B5094C0121207886
:1004F00000F00AFA4FF47A7000F060FA20780021D8
:1005000000F002FA4FF47A70BDE8104000F056BADD
:1005100004E4FF1F1C4B60221A70E1225A701B4B2F
:100520001B4A19781B4B082901D1012102E00A2935
:1005300003D139211160132206E00C2901D13521A4
:1005400000E03D21116012221A60134B1A78134B00
:1005500002B101221A60124B1A78124B012A01D8FB
:1005600080220CE0042A01D8842208E0082A01D85D
:10057000852204E0102A01D8862200E087221A6032
:10058000094B01221A7070470040074008E4FF1F22
:1005900008B003400CB00340D5E9FF1F20B0034072
:1005A00009E4FF1F24B00340D4E9FF1FFEE7FEE784
:1005B000024B1A6801321A60704700BF60EAFF1FE1
:1005C0007047FFFF024A13681818106018467047FA
:1005D0000CE4FF1F10B50023B0FBF2F402FB140083
:1005E000092801D8303000E03730C85420460CB11B
:1005F0000133F1E7CA185470224605E0885CCC5CF0
:100600008C54C8540132013B9A42F7DB084610BDB6
:10061000084B4FF480721A604FF400721A604FF466
:1006200080621A604FF400621A604FF480521A60C0
:10063000704700BF04E100E0114B10B51C68E004F6
:100640001C6004D50F4BDA680AB1DB689847A10437
:1006500004D50C4B1A690AB11B699847A20604D548
:10066000084B1A6E0AB11B6E9847E30606D5054B78
:10067000D3F8842012B1D3F88430984710BD00BF5E
:10068000A0900440D8E9FF1F1F4B10B51C68E00381
:100690001C6004D51D4B1A680AB11B689847A1035A
:1006A00004D51A4B5A680AB15B689847E20704D52B
:1006B000164B1A6C0AB11B6C9847A30704D5134B51
:1006C0005A6C0AB15B6C9847200704D50F4B9A6CA3
:1006D0000AB19B6C9847610704D50C4BDA6C0AB1E0
:1006E000DB6C9847220304D5084B5A6E0AB15B6E47
:1006F0009847630306D5054BD3F8802012B1D3F891
:100700008030984710BD00BFA0A00440D8E9FF1F6B
:100710002C4B10B51C6820071C6004D52A4B5A6A64
:100720000AB15B6A9847E10604D5274B9A6A0AB179
:100730009B6A9847620604D5234BDA6A0AB1DB6AE2
:100740009847230604D5204B1A6B0AB11B6B9847B8
:10075000A00604D51C4B5A6B0AB15B6B9847E107A6
:1007600004D5194BDA6B0AB1DB6B9847A20704D5A5
:10077000154B9A6D0AB19B6D9847630704D5124BD0
:10078000DA6D0AB1DB6D9847A00504D50E4BDA6E21
:100790000AB1DB6E9847E10504D50B4B1A6F0AB11D
:1007A0001B6F9847620504D5074B5A6F0AB15B6F00
:1007B0009847230504D5044B9A6F0AB19B6F98475D
:1007C00010BD00BFA0B00440D8E9FF1F1E4B10B5FC
:1007D0001C68E0071C6004D51C4B9A680AB19B6832
:1007E0009847210604D5194B5A690AB15B699847A5
:1007F000E20604D5154B9A690AB19B6998476307CD
:1008000004D5124BDA690AB1DB699847200704D591
:100810000E4B1A6A0AB11B6A9847A10704D50B4B05
:100820009A6B0AB19B6B9847A20604D5074B1A6DC9
:100830000AB11B6D9847630604D5044B5A6D0AB183
:100840005B6D984710BD00BFA0C00440D8E9FF1FF2
:10085000094B10B51C68A2071C6004D5074B9A6EA3
:100860000AB19B6E9847E30704D5044BDA6F0AB1CF
:10087000DB6F984710BD00BFA0D00440D8E9FF1F30
:10088000044B054900221A600A60044A10601022D5
:100890001A60704714D0034004D0034000D00340D6
:1008A00010B5FFF7B5FE114B114A124C00204BF664
:1008B000FF7118605960282313609360136193617E
:1008C0001362936213639363092222600A4C2060CF
:1008D0000A4801600A490B608B600A4B1A60FFF7F7
:1008E00019FEBDE8104000F069BF00BF048003405E
:1008F0000C800340008003400490034008900340B4
:100900000C90034000900340212810B518D80D4AE0
:1009100052F8303093F880423CB1012211B183F893
:10092000802010BD83F8002110BD02EBC000436899
:100930001A6811B142F0030201E022F002021A60CB
:1009400010BD00BFCC270000212816D80B4A02EBAF
:10095000C00301295B6852F8302004D182F880126C
:100960004FF4A27208E0002082F8800211B94FF41F
:10097000807201E040F203121A607047CC27000039
:1009800072B60B4B0B491A680B4B1B68096862B6B1
:10099000490102D5322A88BF0133C2F5BB32FF328A
:1009A0006021B2FBF1F24FF47A7000FB0320704734
:1009B00018E000E004ED00E060EAFF1F70B50446B7
:1009C000FFF7DEFF05466CB140F2E736FFF7D8FFD0
:1009D000401BB04203D9013C04D005F57A7501F003
:1009E00089F8F3E770BDFFFF0E4B1B685A0570B521
:1009F000064616D50C4B0D4D1C7801343F2C88BF94
:100A0000002401E001F076F82B78A342FAD0084BDD
:100A10001E55084B01221A70034B1C70064BBC225A
:100A20001A7070BD34800440E8EAFF1FE7EAFF1F38
:100A300066EAFF1F64EAFF1F03A00640184B1B680D
:100A40002DE9F0478A465905064627D50546154F34
:100A5000DFF860801BE03C7898F8009001343F2C70
:100A600088BF0024A14508D015F8012B0E4B1A555C
:100A70000E4B01221A703C7009E00D4BBC221A701B
:100A800001F038F898F800304B45F9D0ECE706EB68
:100A90000A039D42DFD3064BBC221A70BDE8F087E3
:100AA00034800440E8EAFF1F66EAFF1F64EAFF1F84
:100AB00003A00640E7EAFF1F10B5044C01E001F077
:100AC00019F82378002BFAD110BD00BF64EAFF1F8C
:100AD000044B1878044B1B78984238BF4030C01A3A
:100AE000704700BFE6EAFF1F65EAFF1F084B094A8F
:100AF00019781378994208D00133DBB23F2B88BFB5
:100B000000230549C85C137070474FF0FF307047F1
:100B1000E6EAFF1F65EAFF1FA6EAFF1F054B1A78EA
:100B2000054B1B789A4202D0044AD05C70474FF0C4
:100B3000FF307047E6EAFF1F65EAFF1FA6EAFF1FC6
:100B4000F8B5304B1B7813F0300F21D072B62E4B16
:100B5000197831B90F3B40221B782C4B1A7062B6C2
:100B600016E062B62A4B2B4C1A782B4B2B4D18787B
:100B7000531CDBB23F2B88BF0023267883421CBF67
:100B8000EE541A46013911F0FF01F1D1204B1A70D1
:100B9000234B1B7819465BB2002B20DA194A1378D5
:100BA00018061CD51F4B204E1F78204B194D1B7863
:100BB0001F4CBB420AD00133DBB23F2B88BF00235E
:100BC0001078F05C287020780728F2D9174A137043
:100BD0000C4B1B781B0602D5114B7C221A7001F0BE
:100BE0004003DBB25BB1074B1B7803F04003DBB281
:100BF0002BB1104B00221A70094B3C221A70AFF334
:100C00000080F8BD04A0064016A0064011A00640D2
:100C1000E6EAFF1F07A0064065EAFF1FA6EAFF1FDE
:100C200003A00640E8EAFF1F66EAFF1FE7EAFF1F8E
:100C300014A0064064EAFF1F0E4B1B681A0570B52E
:100C4000064616D50C4B0D4D1C780134272C88BF59
:100C5000002401E000F04EFF2B78A342FAD0084BAD
:100C60001E55084B01221A70034B1C70064BAC2218
:100C70001A7070BD3480044055EBFF1F54EBFF1F0A
:100C8000EBEAFF1FE9EAFF1F03B0064038B545183D
:100C9000044603E014F8010BFFF7CEFFAC42F9D194
:100CA00038BDFFFF10B5044C01E000F023FF2378AE
:100CB000002BFAD110BD00BFE9EAFF1F044B1878E2
:100CC000044B1B78984238BF4030C01A704700BFB1
:100CD00053EBFF1FEAEAFF1F084B094A1978137804
:100CE000994208D00133DBB23F2B88BF002305496E
:100CF000C85C137070474FF0FF30704753EBFF1F15
:100D0000EAEAFF1F13EBFF1F054B1A78054B1B7810
:100D10009A4202D0044AD05C70474FF0FF307047CF
:100D200053EBFF1FEAEAFF1F13EBFF1F10B5234B26
:100D30001B7803F02003DBB27BB1214B214A1878EA
:100D4000137821490133DBB209783F2B88BF002398
:100D50008B4202D01D49C85413701D490B781846A8
:100D60005BB2002B16DA154B1B781B0612D5194BFC
:100D7000194A1C7813789C4202D16C230B7009E04D
:100D80000133DBB2272B88BF00231449CC5C0C490C
:100D90000C70137000F04003DBB25BB1074B1B78A3
:100DA00003F04003DBB22BB10D4B00221A70084B4D
:100DB0002C221A70AFF3008010BD00BF04B00640B3
:100DC00007B0064053EBFF1FEAEAFF1F13EBFF1FBC
:100DD00003B0064055EBFF1F54EBFF1FEBEAFF1F6C
:100DE000E9EAFF1F0E4B1B68DA0470B5064616D5FC
:100DF0000C4B0D4D1C780134272C88BF002401E0DA
:100E000000F078FE2B78A342FAD0084B1E55084B11
:100E100001221A70034B1C70064BAC221A7070BD75
:100E200034800440C2EBFF1FC1EBFF1F58EBFF1FD4
:100E300056EBFF1F03C0064038B54518044603E0D3
:100E400014F8010BFFF7CEFFAC42F9D138BDFFFF1C
:100E500010B5044C01E000F04DFE2378002BFAD1D0
:100E600010BD00BF56EBFF1F044B1878044B1B78D6
:100E7000984238BF4030C01A704700BFC0EBFF1F18
:100E800057EBFF1F084B094A19781378994208D08D
:100E90000133DBB23F2B88BF00230549C85C1370C8
:100EA00070474FF0FF307047C0EBFF1F57EBFF1F3D
:100EB00080EBFF1F054B1A78054B1B789A4202D036
:100EC000044AD05C70474FF0FF307047C0EBFF1F03
:100ED00057EBFF1F80EBFF1F10B5234B1B7803F070
:100EE0002003DBB27BB1214B214A187813782149CA
:100EF0000133DBB209783F2B88BF00238B4202D03D
:100F00001D49C85413701D490B7818465BB2002B5D
:100F100016DA154B1B781B0612D5194B194A1C788B
:100F200013789C4202D16C230B7009E00133DBB2D1
:100F3000272B88BF00231449CC5C0C490C7013701C
:100F400000F04003DBB25BB1074B1B7803F04003BA
:100F5000DBB22BB10D4B00221A70084B2C221A70F9
:100F6000AFF3008010BD00BF04C0064007C00640BC
:100F7000C0EBFF1F57EBFF1F80EBFF1F03C00640B6
:100F8000C2EBFF1FC1EBFF1F58EBFF1F56EBFF1F0C
:100F90001FB572B6124B70221A70124A412111709D
:100FA0000F2102F8011C80221A701A781206FCD553
:100FB00062B60D4B01A918680A22FFF70BFB0B481C
:100FC000002301AA9A5C2AB100EB430101330A2BEA
:100FD0004A80F6D10133054A5B00137005B000BDAD
:100FE00000000240070002400800024098E4FF1F92
:100FF000F0B50C4B0C4C1A7842F0020504EBC50618
:1010000082F00102706009481A700678002E0CBF49
:101010008827C82747EA014186F0010644F83510C1
:101020000670F0BD2CECFF1F00E0FF1FA4ECFF1FBB
:10103000431E032B10B510D872B6094A52F823008C
:1010400010B1416842F82310064A018832F8134073
:10105000611A22F8131062B610BD002010BD00BF47
:101060001CECFF1F68EDFF1F013803280BD8074B4E
:1010700053F8203072B6002001E05B680130002B8D
:10108000FBD162B670470020704700BF70ECFF1FB5
:1010900070B572B6184E194C01239A1912F8012C2A
:1010A00002F00802D2B2E2B19900144A54F8315069
:1010B0002DB902EB431308305860114B09E041F0A1
:1010C000010154F8315065B902EBC1030830586092
:1010D0000C4B42F831300C4B1A78013A1A7062B658
:1010E00070BD0133052BD8D162B6074B00221A70B0
:1010F000BDE8704000F0C8BBDC28000000E0FF1F26
:1011000088004000C80040009AECFF1F431E032BDC
:1011100030B532D84001194A40F01000101872B6AC
:10112000174CE25C032A09D8DFE802F01602180522
:101130000830022213E00830042210E01148124A5D
:1011400050F8234014B940F8231002E052F823006D
:10115000416042F823100FE0032200E00522E25430
:1011600010F0080F01F108030A8843600CBF8823C0
:10117000C82343EA0243036062B630BD00E0FF1FAC
:10118000D8EBFF1F70ECFF1F80ECFF1F2DE9F74F1E
:10119000A34EA44C357805F00403DBB2ABB1A24BEF
:1011A0001B7883B1A14A137823B1013BDBB21370E2
:1011B00003B900BE9E4A13782BB1013BDBB213701A
:1011C0000BB900F075FC0423337005F00802D2B2AD
:1011D000002A00F07B82974B1B781D094FEA930988
:1011E00040F0F98104EBC903586854F83930C3F36F
:1011F0008303013B0C2B00F2EB81DFE813F0A40129
:10120000A401E901E901E901E901E901E901C001FC
:10121000E901E901E9010D004368874A016853606B
:10122000864B874844F83930864D116000230360AF
:101230000120287089B240F28165A9422361A3612F
:1012400019D8B1F5D06F80F02881B1F5817F00F019
:10125000D88006D8802900F0BE80822940F03981EC
:10126000BDE040F20230814200F00881B1F5A06F8C
:1012700040F02F8131E1B1F5106F10D004D8B1F5F5
:10128000086F40F02681A0E042F22100814200F088
:10129000578100F50070814240F01B8115E1927882
:1012A000614B604D1A702B6A180603D5686A0838BE
:1012B00000F0EAFA644A08359542F4D1DFF8B091BB
:1012C000DFF8B0B10025A846CA4655F8090005E088
:1012D0004368009300F0D8FA009B18460028F7D125
:1012E0005A4B4AF8050045F80B00E85807E04268F9
:1012F0000093019200F0C8FA019A009B1046002862
:10130000F5D15851524BE850524B23F81800524B2C
:1013100018F80320023A032A08D8DFE802F0020492
:101320000204002200E0012203F8082008F101086D
:101330000435B8F1040FC8D1484BDFF83C910022C6
:101340001A7001259846464B05EB0902EB1812F876
:10135000012C9B001A7002F00802D2B23AB300F0DE
:1013600075FAAB0038B104EB4512083050603D4AC5
:1013700044F8332006E044F8330098F80030013395
:1013800088F8003000F062FAAB0043F0010338B196
:1013900004EBC30208305060284A44F8332006E0CA
:1013A00044F8330098F80030013388F80030AA0080
:1013B00042F00201013542F003020023052D44F8FA
:1013C000313044F83230BED187E0174B264D1B78C0
:1013D0002B70034684E0244D2B706B707FE0928865
:1013E000042A00D975E0204D2B706B701F4B9200C2
:1013F000D3181B7803F00203DBB2002B6FD02870E8
:101400006DE0918801F07F03042B62DC538803B107
:101410005FE0164A89008A18117821F0020156E02F
:101420008020074000E0FF1FA3ECFF1F2DECFF1FF3
:10143000A5ECFF1F9020074090ECFF1FC800400064
:10144000C4EBFF1FA4ECFF1F68E0FF1F70ECFF1F41
:1014500080ECFF1F68EDFF1FD8EBFF1F9AECFF1F0A
:1014600030C80110880040009BECFF1FC0200740DF
:101470001CECFF1FC8EBFF1FDC280000918801F067
:101480007F03042B25DC538803B122E0A04A8900A6
:101490008A18117841F0020119E051889D4B928819
:1014A00053F8085CA3F10C009DB133F80CCC8C45CB
:1014B00009D133F80ACC944505D1090A03290CBF98
:1014C0002B7803890CE00C33EAE79178924A11708B
:1014D00003E08F4B0F221A7032E01D4600E002231A
:1014E0008E4AB2F806904B4538BF9946B9F1400F85
:1014F00034BFC8464FF0400828464146FFF778FD04
:10150000B9EB0809454403D1B8F1400F07D017E003
:10151000B9F1400F34BFC8464FF0400800E0C8465C
:1015200028464146FFF764FDB9EB0809454402D15E
:10153000B8F1400F04D17A4B7A4A1D60A2F80090AE
:101540000122794B43E0754B1A8842F221039A42FB
:1015500011D1764A0023C15C99540133072BFAD18B
:10156000724B1B68862B02D1714B0F221A70002020
:101570000146FFF73DFD6F4B44F8393028E0684BDA
:10158000D3F80080B8F1000F18D0DFF89891B9F8BF
:1015900000A0BAF1400F34BF5546402540462946C9
:1015A000FFF726FDC5EB0A039BB2A9F800300BB983
:1015B000402D01D108EB0503594A1360574B1A8897
:1015C000B2F5A06F04D100225A709A785A4B1A7063
:1015D0000122554B6DE004EBC90803F00803D8F86D
:1015E0000420013DD9B2A2F10800EDB2002937D0A4
:1015F00000F04AF95148524B50F82510F1B14A68B1
:1016000040F8252001F10802C8F804205A5D032A99
:101610000BD8DFE802F002040608032204E00222ED
:1016200002E0052200E004225A5518F0080F0A884B
:101630000CBF8823C82343EA024342E05A5D032AD1
:1016400007D8DFE802F040400204002206E0012251
:1016500004E018F0080F0CBF022203225A5532E0B2
:1016600054F839301B0C22F8083C23B322F8061C2E
:1016700042F8041C334A344952F8257017B942F82D
:10168000250002E051F825205060304A41F825003D
:1016900032F815105B1822F8153000F0D7F818B1A1
:1016A0000830C8F8040006E0294B44F839001A78DD
:1016B00001321A7007E01F4B264A18F0080F08BFC6
:1016C000134644F839300823337063E5E90751D5F0
:1016D00015492048204C02230B70204B1A70204BD8
:1016E000186098601F481A61D8609A615C60084B66
:1016F0000D2018701C48FF23037000F8083C02748A
:101700001A4A13701A4B9F221A7001230B704CE077
:10171000C0200740EC280000B4ECFF1F90ECFF1F36
:10172000C4EBFF1F98ECFF1F9420074070EDFF1FD4
:101730002DECFF1FC80040009820074070ECFF1FF1
:10174000D8EBFF1F1CECFF1FC8EBFF1F68EDFF1F4E
:101750009AECFF1F88004000DCEBFF1F2CECFF1F02
:1017600000E0FF1F30ECFF1F882007408C2007405F
:10177000842007402B0605D50D4B0D221A708022C0
:1017800003F8402C05F00203DBB22BB1094B1A78A9
:101790001A70022203F8082C05F01005EDB215B1FD
:1017A000054B10221A70AFF30080BDE8FE8F00BF1A
:1017B000C0200740882007408020074008B5FFF779
:1017C000E7FB00231B491A465A50C8180833882BD8
:1017D0004260F9D1184B1A6842F480221A60174B04
:1017E00080221A701978154A0906FBD4114B144946
:1017F000C3F307200870C3F307401B0E08750B7670
:10180000FF2301F81C3C01F8143C01F88C3C1378D0
:1018100043F0400313700021012302F8783C02F8E2
:101820000C1C02F8883C074B08221A60064B102259
:101830001A7008BD00E0FF1F348004400C210740EF
:101840009C20074004E100E00821074072B60C4AE2
:101850001168B1FA81F30B2B02D962B600207047F0
:101860004FF0004020FA03F021EA0001116062B657
:10187000044948225343C8180022CA5042607047A6
:10188000B0E4FF1FA0E0FF1F0C4B4822C31AB3FBBC
:10189000F2F30B2B11D80A4A127822B1094A1278B6
:1018A0000AB1FFF7F5BB72B6074A4FF0004121FAC3
:1018B00003F311681943116062B67047A0E0FF1F7F
:1018C0009AECFF1FA3ECFF1FB0E4FF1F38B5114CCB
:1018D00023684BB10F4D28684288811801320C7A79
:1018E00001888A4212D30CE00B4B1B7813B94FF0DE
:1018F000FF340CE00320FFF79BFB20600028E9D1B8
:10190000F5E7FFF7C1FF00232B6000E0428020468F
:1019100038BD00BFB0ECFF1FA3ECFF1F10B50C4C8F
:1019200023681BB10A4B1B686BB902E0094B1B789B
:1019300013B94FF0FF3010BD0320FFF779FB206093
:101940000028EFD1F5E75A889B18187A10BD00BF20
:10195000B0ECFF1FA3ECFF1F044B9888044B1B68DF
:101960001BB11A885B88D31AC018704768EDFF1F37
:10197000B0ECFF1F2DE9F8432D4B2E4DDFF8C08052
:1019800001220C461A7006464BE02B682BBBDFF891
:10199000A0904AF2F92798F8003013B9244A13703E
:1019A00014E00420FFF760FB072808D8012389F81A
:1019B0000030FFF74BFF286078B989F80000013F3D
:1019C0001D4B01D01A782AB101221A704FF0FF3056
:1019D000BDE8F88300F08EF8DDE72968164A4888EC
:1019E00000231370C0F14002944238BF224600F138
:1019F00008078018CF194880A41A02E0F05CF85458
:101A000001339342FAD1F6184B883F2B06D9402375
:101A10000B800420FFF77AFB00232B60074B052285
:101A20001A70002CB1D1024B20461C70BDE8F8831F
:101A3000A6ECFF1FA8ECFF1FACECFF1FA5ECFF1FDF
:101A4000A3ECFF1F07B502AB012103F8010D1846F7
:101A5000FFF790FF0EBDFFFFF8B5114B1B78EBB100
:101A6000104E114B3468114D01271F704CB1638823
:101A700000272F70042023802146FFF747FB3760A3
:101A800009E0FFF7E3FE014620B104202C70FFF7C8
:101A90003DFB00E02F70044B00221A70F8BD00BF20
:101AA000A3ECFF1FA8ECFF1FA6ECFF1FA5ECFF1F78
:101AB00038B50D4B1D78ADB90C4C216831B14B8850
:101AC00004200B80FFF722FB256038BDFFF7BEFE28
:101AD000014620B10420BDE83840FFF717BB044B96
:101AE00001221A7038BD00BFA6ECFF1FA8ECFF1F33
:101AF000A5ECFF1F7047FFFFF8B5164B164D1A688F
:101B000042F080721A60154B1A6842F001021A60A6
:101B1000134B2E681C680FE0237A63B121682F688D
:101B20000B68204698472A68E388D21B12099A421C
:101B3000A28088BFE2806469002CEDD1064B094A7F
:101B40001B689B1B1B091380074A11888B4288BFA7
:101B50001380F8BDFCED00E0041000E0001000E090
:101B6000B8ECFF1FBEECFF1FBCECFF1F10B5084612
:101B700014461146FEF762FF204610BD084608B520
:101B8000FEF732FF012008BDFEF796BFFEF7AEBF9D
:101B9000FEF7C4BFFEF79CBF044B00221A711A73F4
:101BA000034A4FF47A7199601A607047C0ECFF1FC6
:101BB0004029000010B5084614461146FFF766F8A4
:101BC000204610BD084608B5FFF736F8012008BDCD
:101BD000FFF768B8FFF780B8FFF796B8FFF76EB861
:101BE000044B00221A711A73034A4FF47A719960F8
:101BF0001A607047D0ECFF1F6029000010B508463E
:101C000014461146FFF718F9204610BD084608B5DE
:101C1000FFF7E8F8012008BDFFF71AB9FFF732B95E
:101C2000FFF748B9FFF720B9044B00221A711A7365
:101C3000034A4FF47A7199601A607047E0ECFF1F15
:101C40008029000008B5034B01221A60024B1B6873
:101C5000984708BD0C710340F8ECFF1F08B5034B13
:101C600001221A60024B5B68984708BD1C71034053
:101C7000F8ECFF1F08B5034B01221A60024B9B686A
:101C8000984708BD2C710340F8ECFF1F08B5034BC3
:101C900001221A60024BDB68984708BD3C71034083
:101CA000F8ECFF1F054B01221A60054B1A6822F45D
:101CB00000021A60034B00221A7070470070034044
:101CC0003C800440F4ECFF1F037B0122591103F018
:101CD0001F0302FA03F3084A42F821308268002306
:101CE00013604178054A5354D15C21B90133042B68
:101CF000FAD1FFF7D7BF704780E100E0F0ECFF1F9B
:101D0000037810B504460BB1FFF7DEFF0023237004
:101D100010BD2DE9F041002407460D4626463B192B
:101D20000A2219792846002300F02AF82B688046F9
:101D30002E211B682846984701344044032C064452
:101D4000EDD12846F9790A22002300F019F880190C
:101D5000BDE8F081044B054A1A6000221A715A71DD
:101D60009A71DA71704700BF08EDFF1FA0290000CB
:101D700008B5FEF7B1FBFEF7B7FBFFF7BBFEFAE7CE
:101D8000F0B505468BB022B90368C9B21B68984705
:101D90002CE0012A08BF0A2221B930228DF8252023
:101DA000212413E02124B1FBF2F002FB1011C9B28F
:101DB000092901D8303100E037310AAF3E1906F861
:101DC000241C014610B1013CE4B2ECE733B1013C04
:101DD0000AAAE4B213192D2203F8242C2B6801AFB0
:101DE0005B6828463919C4F1220298470BB0F0BD50
:101DF00010B50446FFF784FF204610BD0348044990
:101E0000044A0023037000F025B800BF10EDFF1F47
:101E1000F11D000000E4FF1F08461146FFF7AABDB0
:101E20000846FFF70FBEFFF717BEFFF777BDFFF7B6
:101E30004DBDFFF791BDFFFF044B00221A711A73CD
:101E4000034A4FF47A7199601A60704724EDFF1FBE
:101E5000B029000003460846194600F001B800BF4B
:101E600030B405460C46134602202946224630BCB3
:101E700000F020BB70B542F6DC1642F6DC15C0F26D
:101E80000006C0F20005761BB61007D0043D002402
:101E900055F8043F01349847A642F9D142F6F816A6
:101EA00042F6DC15C0F20006C0F20005761B00F019
:101EB0008FFDB61008D0043D002455F8043F0134CE
:101EC0009847A642F9D170BD70BD00BF4EF2B44331
:101ED0000146C1F6FF73186800F008B84EF2B4432B
:101EE0000146C1F6FF73186800F0A6BB2DE9F04F5C
:101EF00001F10B04162C83B0074630D924F00704F7
:101F0000E30F8C422CBF194643F0010100292FD169
:101F1000384600F0B7FAB4F5FC7F2ED24FEAD40C65
:101F20004EF2A856C1F6FF7606EBCC02D368934278
:101F300000F01182596803F10808DA68384621F088
:101F4000030499681B195C68CA6044F0010491603D
:101F50005C6000F099FA404603B0BDE8F08F0023C2
:101F600010248C422CBF194643F001010029CFD028
:101F70000C234FF000083B60EDE75FEA542C04BFF0
:101F80004FEAD40C4FEA4C0540F08F804EF2A85631
:101F9000C1F6FF7606EB8505EB689D4206D10DE0A4
:101FA000002A80F25581DB689D4207D0596821F0F4
:101FB00003010A1B0F2AF3DD0CF1FF3C0CF1010CAD
:101FC0004EF2A8523369C1F6FF7202F1080E734552
:101FD00008BFD2F8049022D0586820F00300011BFB
:101FE0000F2900F384810029C2F814E0C2F810E040
:101FF00066DAB0F5007F80F04E81C1084FF001082D
:1020000002EBC100891008FA01F851688568D860B0
:1020100048EA0109C2F804909D60EB6083600122E8
:102020004FEAAC0302FA03F34B4554D819EA030F05
:102030000DD193402CF0030C19EA030F0CF1040CA2
:1020400005D15B000CF1040C19EA030FF9D006EB83
:10205000CC09E0464846C268904207D15BE10029BE
:1020600080F28381D268904200F05581556825F056
:102070000305291B0F29F2DD90461319D56844F09A
:10208000010058F8084F41F0010C50603846C3F881
:1020900004C0E560AC6073613361C3F80CE0C3F861
:1020A00008E0595000F0F0F955E7BCF1040F00F2D8
:1020B000DE804FEA941C0CF1380C4FEA4C0565E7C2
:1020C0001A1803F108083846536843F001035360B7
:1020D00000F0DAF93FE7B5686B6823F0030A54456E
:1020E00004D8C4EB0A030F2B00F3A4804EF6345936
:1020F000D6F80814C1F6FF7905EB0A020131D9F8C8
:102100000030234408BF03F1100B06D003F58053C1
:102110000F3323F47F6323F00F0B384659460192A7
:1021200000F0B4F9019A411C804600F068818242B7
:1021300000F23181D9F8043042455B44C9F80430DB
:1021400000F06681D6F808144EF2A850C1F6FF7070
:10215000013117BFC2EB0802C0F808849B18C9F808
:10216000043018F0070338461FBFC3F10802C3F557
:102170008053904403F1080208EB0B0308BF4FF4AF
:1021800080521B051B0DC3EB020B594600F07EF974
:10219000431C00F04981C8EB0001594441F00101A2
:1021A000D9F80430B5424EF63452C6F808805B4484
:1021B000C1F6FF72C8F80410C9F8043018D0BAF19B
:1021C0000F0F40F20B81AAF10C00696820F00700A4
:1021D0004FF0050C05EB000E0F2801F0010140EA5D
:1021E00001016960CEF804C0CEF808C000F2208179
:1021F0004EF63452D9F82C10C1F6FF72B5688B42F6
:10220000D9F8301088BFD3624EF63452C1F6FF724F
:102210008B4288BF13636A6822F003029442C4EBC6
:10222000020301D80F2B05DC38464FF0000800F000
:102230002BF990E62A1943F0010344F001043846D3
:102240006C6005F108085360B26000F01DF982E689
:102250005918DA689C6838464D6803F1080845F05B
:102260000105E26094604D6000F00EF973E6BCF188
:10227000140F9CBF0CF15B0C4FEA4C057FF686AE49
:10228000BCF1540F00F293804FEA143C0CF16E0C39
:102290004FEA4C057AE6420A042A75D9142A9CBFF3
:1022A00002F15B094FEA490508D9542A00F2C980B6
:1022B0004FEA103909F16E094FEA490506EB850529
:1022C0004EF2A858C1F6FF78AA68AA4279D05168A0
:1022D00021F00301884202D292689542F7D1D0687A
:1022E000D6F80490D8609A60D360836097E61D1991
:1022F00041F00106556144F00104156138465C6007
:1023000003F10808C5F80CE0C5F808E06E606950F4
:1023100000F0BAF81FE608F10108083018F0030FC2
:102320007FF499AE4A461CF0030FA2F108010CF1AC
:10233000FF3C00F09E8012688A42F4D072685B0015
:1023400093423FF6C8AE002B3FF4C5AE1A4200F0F0
:102350009580C4467BE603F108025B699A4208BF98
:102360000CF1020C3FF42CAEE4E590465519D3680D
:10237000384658F8082F6968D36041F001019A6027
:10238000696000F081F8E6E54FEA901909F1380933
:102390004FEA490592E7B5424EF2A853C1F6FF73E2
:1023A0003FF4C8AE9D686A6822F0030236E7BCF5C8
:1023B000AA7F19D84FEAD43C0CF1770C4FEA4C05B0
:1023C000E4E50125D8F804104FEAA909104605FAFA
:1023D00009F545EA0109C8F8049083E70123454659
:1023E000C8F80430002219E740F254539C450BD83A
:1023F0004FEA944C0CF17C0C4FEA4C05C6E5B568ED
:102400006A6822F0030209E7FC254FF07E0CBDE567
:102410001105090D00297FF495AEB2680BEB0A0196
:1024200041F001015160E3E601214FF0000BB7E6F6
:10243000384605F10801019200F0FEF8019A536850
:10244000D6E6B2F5AA7F06D84FEAD03909F1770966
:102450004FEA490532E740F25451FC258A424FF0D9
:102460007E099EBF4FEA904909F17C094FEA490570
:1024700024E7726822EA0302726060E75B0008F1F9
:10248000040863E7704700BF704700BF38B54EF6D9
:102490007854C1F6FF740546084600232360FEF712
:1024A00091F8431C00D038BD2368002BFBD02B6073
:1024B00038BD00BF2DE9F04142F6C814C0F2000457
:1024C00084B007462568AC6C002C42D066681F2E8D
:1024D0001ADD41F6CD64C0F2000424B94FF0FF309C
:1024E00004B0BDE8F0818C20039102920193FFF7C4
:1024F000EDFC0399029A019B04460028EED0A86CDB
:10250000002684E84100AC64DFB1D4F8886026B3CB
:10251000D6F8008165680120022F05F1200C00FA31
:1025200005F046F8252048EA000246F82C3008BF9E
:10253000D6F80431C6F8002104BF1843C6F80401D8
:1025400000E06568AB1C00200135656044F823108D
:10255000C6E705F14C04AC64B8E741F6CD60C0F2C3
:1025600000000028BAD04FF48470039102920193C6
:10257000FFF7ACFC0399029A019B06460028ADD0F8
:102580000020C6F80001C6F804018046C4F888603F
:10259000C0E700BFF8B54EF2A854C1F6FF740F466D
:1025A0000546FFF76FFFA3685E6826F0030606F690
:1025B000EF73DF1B3F0B013F3F03B7F5805F07DB86
:1025C00000212846FFF762FFA3689B19984204D0B8
:1025D0002846FFF759FF0020F8BD79422846FFF74B
:1025E00055FF013010D04EF63853A168C1F6FF7385
:1025F000F61B284646F001061A684E60D71B1F607E
:10260000FFF742FF0120F8BD00212846FFF73EFFFB
:10261000A368C21A0F2ADBDD4EF6B0144EF638510D
:10262000C1F6FF74C1F6FF7142F001025A602368DF
:10263000C01A0860CCE700BF2DE9F0410E46804685
:1026400000295CD0FFF71EFF4EF2A85556F8041C77
:10265000C1F6FF75A6F1080421F00103AF68E21886
:102660009742506820F0030067D011F001015060DC
:1026700035D000211618766816F0010F06D11B1808
:10268000906800294DD0D268C260906043F001028A
:10269000E3506260F1B9B3F5007F32D35A0A042ADD
:1026A0006CD898093830410005EB81054EF2A851ED
:1026B000C1F6FF71AA68AA426BD0516821F00301EC
:1026C0008B4202D292689542F7D1D368E360A26050
:1026D000D4609C604046BDE8F041FFF7D5BE56F897
:1026E000086C05F1080CA41B9B19A668664543D02D
:1026F000D4F80CC0C6F80CC0CCF80860BAE7BDE846
:10270000F081DB080121686805EBC3029B1001FA28
:1027100003F3E260916818436860A160CC60946044
:10272000D8E7294EB042AED16C6143F001022C6172
:10273000E060A0606260E350CCE7C018CB0707D42C
:1027400056F8083CE41AC018A268E368D3609A609F
:102750004EF6B41240F00103C1F6FF726360AC6044
:1027600013689842B6D34EF634534046C1F6FF7311
:102770001968FFF70FFFADE701217BE702F15B006E
:102780004100142A90D9542A0CD8180B6E304100FD
:102790008AE701264D688010134606FA00F00543CB
:1027A0004D6093E7B2F5AA7F03D8D80B773041008C
:1027B0007AE740F254518A4203D8980C7C304100A9
:1027C00072E7FC217E206FE7B0E5FF1F4008FE4363
:1027D00040A004404408FE4344A004400018FE43C7
:1027E00000C004403000FE43309004403400FE43FB
:1027F000349004401C18FE431CC004401018FE43D3
:1028000010C004400818FE4308C004400C18FE43E2
:102810000CC004400C10FE430CB004401010FE43EA
:1028200010B004401810FE4318B004401C10FE43C2
:102830001CB004401410FE4314B004400418FE43BE
:1028400004C004400010FE4300B004400008FE43F2
:1028500000A004400408FE4304A004400C08FE430A
:102860000CA004400808FE4308A004401418FE43CE
:1028700014C004401818FE4318C004400410FE435E
:1028800004B004400810FE4308B004401400FE43A6
:10289000149004404C08FE434CA004400420FE4326
:1028A00004D004402410FE4324B004402010FE4312
:1028B00020B004402810FE4328B004402C10FE43F2
:1028C0002CB004400020FE4300D004404808FE43E2
:1028D00048A004401000FE43109004400015191554
:1028E0000001000010E4FF1F1200000000020000C1
:1028F0003AE4FF1F430000000003000094E4FF1FC0
:10290000000000000103090422E4FF1F0000000092
:10291000020309047EE4FF1F000000000303090412
:1029200098E4FF1F0000000000000000000000000D
:1029300000000000FFFFFFFF00000000000000009B
:102940007D1B00006D1B0000951B00008D1B00000F
:10295000911B0000891B0000000000000000000027
:10296000C51B0000B51B0000DD1B0000D51B0000CF
:10297000D91B0000D11B0000000000000000000077
:102980000D1C0000FD1B0000251C00001D1C00008C
:10299000211C0000191C00000000000000000000C5
:1029A000131D0000000000000000000000000000F7
:1029B000211E0000191E0000331E00002F1E000003
:1029C0002B1E0000271E0000B8E4FF1F430000007C
:1029D000F8B500BFF8BC08BC9E46704799040000DB
:1029E000991B0000E11B0000291C0000551D000080
:0829F000FD1D0000391E00006E
:1029F800000000000D0000000A0400007CEDFF1F2D
:102A08001201000202000040C01683040001010206
:102A1800030118035400650065006E007300790017
:102A28006400750069006E006F000902430002012E
:102A380000C0320904000001020201000524001050
:102A480001052401010104240206052406000107EA
:102A580005820310004009040100020A0000000773
:102A68000503024000000705840240000000160329
:102A780055005300420020005300650072006900B1
:102A880061006C00040309040C030000000000004E
:102A9800000000000000000000000000000000002E
:102AA800FFFFFFFFB8E4FF1F000000000000000068
:102AB800000000000000000000000000000000000E
:102AC8000000000000000000CC2900000000000009
:102AD80000000000000000000000000000000000EE
:102AE80000000000000000000000000000000000DE
:102AF80000000000000000000000000000000000CE
:102B080000000000000000000000000000000000BD
:102B180000000000000000000000000000000000AD
:102B2800000000000000000000000000000000009D
:102B3800000000000000000000000000000000008D
:102B4800000000000000000000000000000000007D
:102B5800000000000000000000000000000000006D
:102B6800000000000000000000000000000000005D
:102B7800000000000000000000000000000000004D
:102B8800000000000000000000000000000000003D
:102B9800000000000000000000000000000000002D
:102BA800A8E5FF1FA8E5FF1FB0E5FF1FB0E5FF1F61
:102BB800B8E5FF1FB8E5FF1FC0E5FF1FC0E5FF1F11
:102BC800C8E5FF1FC8E5FF1FD0E5FF1FD0E5FF1FC1
:102BD800D8E5FF1FD8E5FF1FE0E5FF1FE0E5FF1F71
:102BE800E8E5FF1FE8E5FF1FF0E5FF1FF0E5FF1F21
:102BF800F8E5FF1FF8E5FF1F00E6FF1F00E6FF1FCF
:102C080008E6FF1F08E6FF1F10E6FF1F10E6FF1F7C
:102C180018E6FF1F18E6FF1F20E6FF1F20E6FF1F2C
:102C280028E6FF1F28E6FF1F30E6FF1F30E6FF1FDC
:102C380038E6FF1F38E6FF1F40E6FF1F40E6FF1F8C
:102C480048E6FF1F48E6FF1F50E6FF1F50E6FF1F3C
:102C580058E6FF1F58E6FF1F60E6FF1F60E6FF1FEC
:102C680068E6FF1F68E6FF1F70E6FF1F70E6FF1F9C
:102C780078E6FF1F78E6FF1F80E6FF1F80E6FF1F4C
:102C880088E6FF1F88E6FF1F90E6FF1F90E6FF1FFC
:102C980098E6FF1F98E6FF1FA0E6FF1FA0E6FF1FAC
:102CA800A8E6FF1FA8E6FF1FB0E6FF1FB0E6FF1F5C
:102CB800B8E6FF1FB8E6FF1FC0E6FF1FC0E6FF1F0C
:102CC800C8E6FF1FC8E6FF1FD0E6FF1FD0E6FF1FBC
:102CD800D8E6FF1FD8E6FF1FE0E6FF1FE0E6FF1F6C
:102CE800E8E6FF1FE8E6FF1FF0E6FF1FF0E6FF1F1C
:102CF800F8E6FF1FF8E6FF1F00E7FF1F00E7FF1FCA
:102D080008E7FF1F08E7FF1F10E7FF1F10E7FF1F77
:102D180018E7FF1F18E7FF1F20E7FF1F20E7FF1F27
:102D280028E7FF1F28E7FF1F30E7FF1F30E7FF1FD7
:102D380038E7FF1F38E7FF1F40E7FF1F40E7FF1F87
:102D480048E7FF1F48E7FF1F50E7FF1F50E7FF1F37
:102D580058E7FF1F58E7FF1F60E7FF1F60E7FF1FE7
:102D680068E7FF1F68E7FF1F70E7FF1F70E7FF1F97
:102D780078E7FF1F78E7FF1F80E7FF1F80E7FF1F47
:102D880088E7FF1F88E7FF1F90E7FF1F90E7FF1FF7
:102D980098E7FF1F98E7FF1FA0E7FF1FA0E7FF1FA7
:102DA800A8E7FF1FA8E7FF1FB0E7FF1FB0E7FF1F57
:102DB800B8E7FF1FB8E7FF1FC0E7FF1FC0E7FF1F07
:102DC800C8E7FF1FC8E7FF1FD0E7FF1FD0E7FF1FB7
:102DD800D8E7FF1FD8E7FF1FE0E7FF1FE0E7FF1F67
:102DE800E8E7FF1FE8E7FF1FF0E7FF1FF0E7FF1F17
:102DF800F8E7FF1FF8E7FF1F00E8FF1F00E8FF1FC5
:102E080008E8FF1F08E8FF1F10E8FF1F10E8FF1F72
:102E180018E8FF1F18E8FF1F20E8FF1F20E8FF1F22
:102E280028E8FF1F28E8FF1F30E8FF1F30E8FF1FD2
:102E380038E8FF1F38E8FF1F40E8FF1F40E8FF1F82
:102E480048E8FF1F48E8FF1F50E8FF1F50E8FF1F32
:102E580058E8FF1F58E8FF1F60E8FF1F60E8FF1FE2
:102E680068E8FF1F68E8FF1F70E8FF1F70E8FF1F92
:102E780078E8FF1F78E8FF1F80E8FF1F80E8FF1F42
:102E880088E8FF1F88E8FF1F90E8FF1F90E8FF1FF2
:102E980098E8FF1F98E8FF1FA0E8FF1FA0E8FF1FA2
:102EA800A8E8FF1FA8E8FF1FB0E8FF1FB0E8FF1F52
:102EB800B8E8FF1FB8E8FF1FC0E8FF1FC0E8FF1F02
:102EC800C8E8FF1FC8E8FF1FD0E8FF1FD0E8FF1FB2
:102ED800D8E8FF1FD8E8FF1FE0E8FF1FE0E8FF1F62
:102EE800E8E8FF1FE8E8FF1FF0E8FF1FF0E8FF1F12
:102EF800F8E8FF1FF8E8FF1F00E9FF1F00E9FF1FC0
:102F080008E9FF1F08E9FF1F10E9FF1F10E9FF1F6D
:102F180018E9FF1F18E9FF1F20E9FF1F20E9FF1F1D
:102F280028E9FF1F28E9FF1F30E9FF1F30E9FF1FCD
:102F380038E9FF1F38E9FF1F40E9FF1F40E9FF1F7D
:102F480048E9FF1F48E9FF1F50E9FF1F50E9FF1F2D
:102F580058E9FF1F58E9FF1F60E9FF1F60E9FF1FDD
:102F680068E9FF1F68E9FF1F70E9FF1F70E9FF1F8D
:102F780078E9FF1F78E9FF1F80E9FF1F80E9FF1F3D
:102F880088E9FF1F88E9FF1F90E9FF1F90E9FF1FED
:102F980098E9FF1F98E9FF1FA0E9FF1FA0E9FF1F9D
:082FA800FFFFFFFF0000020023
:00000001FF
