:1000000000200020F9000000C7340000C7340000C1
:10001000C7340000C7340000C7340000C5340000F6
:10002000C5340000C5340000C5340000C7340000EA
:10003000C7340000C5340000C7340000C9340000D4
:10004000C7340000C7340000C7340000C7340000C4
:10005000C7340000C7340000C7340000C7340000B4
:10006000C7340000C7340000C7340000011C000082
:10007000C7340000C7340000C7340000C734000094
:10008000D53B0000C7340000C13D0000C73400006C
:100090006D3F0000C7340000C7340000C7340000C3
:1000A000C7340000C7340000C7340000C734000064
:1000B000C7340000C7340000D94C0000F14C0000E8
:1000C000094D0000214D0000C7340000214200000E
:1000D000C7340000C7340000C7340000C734000034
:1000E000E535000035360000BD36000079370000E8
:1000F000FD3700008D4B00004A4B4CF2205210B5EA
:100100001A804DF628121A80102223F80E2C03F0C4
:10011000E3F9454B454A1A60454A5A60454B1A680F
:1001200012F4807204D144490A604FF4A8521A6054
:10013000424B1A7802F00802D2B21AB11A7842F091
:1001400008021A7000233E4A3E483F4C02E019590B
:100150009950043399188142F9D33C4B3C4A002111
:1001600001E043F8041B9342FBD33A4B00221A6090
:10017000394B0A221A70394B24221A70A02203F834
:10018000012C374A137803F00203DBB2002BF9D0BD
:10019000334A137803F01003DBB2002BF9D1304A55
:1001A000137803F00C03082BFAD12E4B03221A709C
:1001B00040225A702A4A137803F02003DBB2002B46
:1001C000F9D0274A137803F04003DBB2002BF9D0B3
:1001D000254A264B1A60264B20221A70204A137893
:1001E00003F00C030C2BFAD1224B02221A60224A94
:1001F00043F8442C214B224A1A60072243F8042C6E
:1002000062B603F023FB0C4B1B68DB0702D51D48CD
:1002100003F00CFB07F01EFB03F05EF904F0F2FDA7
:10022000FEE700BF0E20054038800440823F0400F6
:100230000100002B10D0034014D0034002D007402F
:1002400000E4FF1FD4E9FF1FC0940000D4E9FF1FA2
:1002500000F2FF1F08ED00E000500640014006409C
:10026000064006400440064000000301448004406C
:100270000040064048800440C010050014E000E043
:10028000FF76010087EC7B52FFFFFFFFFFFFFFFFC0
:10029000FFFFFFFFFFFFFFFFFFFFFFFFFFFFFFFF6E
:1002A000FFFFFFFFFFFFFFFFFFFFFFFFFFFFFFFF5E
:1002B000FFFFFFFFFFFFFFFFFFFFFFFFFFFFFFFF4E
:1002C000FFFFFFFFFFFFFFFFFFFFFFFFFFFFFFFF3E
:1002D000FFFFFFFFFFFFFFFFFFFFFFFFFFFFFFFF2E
:1002E000FFFFFFFFFFFFFFFFFFFFFFFFFFFFFFFF1E
:1002F000FFFFFFFFFFFFFFFFFFFFFFFFFFFFFFFF0E
:10030000FFFFFFFFFFFFFFFFFFFFFFFFFFFFFFFFFD
:10031000FFFFFFFFFFFFFFFFFFFFFFFFFFFFFFFFED
:10032000FFFFFFFFFFFFFFFFFFFFFFFFFFFFFFFFDD
:10033000FFFFFFFFFFFFFFFFFFFFFFFFFFFFFFFFCD
:10034000FFFFFFFFFFFFFFFFFFFFFFFFFFFFFFFFBD
:10035000FFFFFFFFFFFFFFFFFFFFFFFFFFFFFFFFAD
:10036000FFFFFFFFFFFFFFFFFFFFFFFFFFFFFFFF9D
:10037000FFFFFFFFFFFFFFFFFFFFFFFFFFFFFFFF8D
:10038000FFFFFFFFFFFFFFFFFFFFFFFFFFFFFFFF7D
:10039000FFFFFFFFFFFFFFFFFFFFFFFFFFFFFFFF6D
:1003A000FFFFFFFFFFFFFFFFFFFFFFFFFFFFFFFF5D
:1003B000FFFFFFFFFFFFFFFFFFFFFFFFFFFFFFFF4D
:1003C000FFFFFFFFFFFFFFFFFFFFFFFFFFFFFFFF3D
:1003D000FFFFFFFFFFFFFFFFFFFFFFFFFFFFFFFF2D
:1003E000FFFFFFFFFFFFFFFFFFFFFFFFFFFFFFFF1D
:1003F000FFFFFFFFFFFFFFFFFFFFFFFFFFFFFFFF0D
:10040000FFFFFFFFFFFFFFFFFFFFFFFFFEFFFFFFFD
:1004100008B54EF6D410074BC1F6FF701B1A062B19
:1004200000D808BD40F20003C0F20003002BF8D052
:100430009847F6E7D7E9FF1F08B54EF6D4104EF6F9
:10044000D413C1F6FF70C1F6FF731B1A9B1003EBA8
:10045000D373591000D108BD40F20002C0F200026F
:10046000002AF8D09047F6E710B54EF6D414C1F63E
:10047000FF74237873B9FFF7CBFF40F20003C0F29B
:1004800000032BB149F2C040C0F20000AFF300807E
:100490000123237010BD00BF08B540F20003C0F275
:1004A00000034BB149F2C0404EF6D811C0F2000033
:1004B000C1F6FF71AFF300804EF6D410C1F6FF70A5
:1004C00003682BB140F20003C0F2000303B1984768
:1004D000BDE80840FFF7B0BF38B5044608460D46F2
:1004E00003F004F8236802465B68204629469847D3
:1004F00038BD08B503681B68984708BD08B5FFF705
:10050000EBFF08BD04F0CCBC38B50446FFF7F1FFA3
:100510000546204604F07EFC401938BD38B5044637
:10052000FFF7DAFF0546204604F074FC281838BDB2
:1005300037B59DF818100091044604F0BDFC05463F
:10054000204604F067FC28183EBDFFFF034B82B035
:100550001B680193019B036002B07047E0EEFF1F30
:100560002DE9F043A9B0044602F014FA1E2003F06E
:10057000FBF92046002102F013FA0122134620461F
:10058000102102F0EDFA0621204602F0F9FA204689
:1005900002F0FCFA00210B460A46204602F0E0FA7F
:1005A000204602F061FA204602F074FA81462046A5
:1005B00002F08EFA8046204602F0A8FA7F2200213F
:1005C0000746204602F069F92046002102F0D0F9E2
:1005D00000216822204602F060F9204602F0D4F99A
:1005E00000251420012603F0BFF98DE860002046A5
:1005F000B24940F289722B4602F0C6FB002800F097
:1006000009812046AE49C02202F038FC002800F0E3
:1006100003812046032102F0C9F92046122102F08D
:1006200046F92046042102F0FBF82046314602F04C
:10063000FCF82046032102F001F92046032102F0D4
:1006400006F92046032102F01CFC2046294602F050
:100650001DFC2046294602F017FA2046494602F0C2
:100660002DFA2046414602F047FA3946204602F06C
:1006700061FA9449D2E09DF81220901C984280F2D1
:10068000CD809DF811109DF81030009100260121B9
:10069000019102960DF11301204602F0CFFA334684
:1006A0008849CAE09DF81220901C984280F2C580CB
:1006B0009DF811109DF810300091012700260DF1D2
:1006C000130101970296204602F0B8FA204602F084
:1006D00055F9204602F074F908A9C2B2204602F08A
:1006E00083F92046022102F0C4F820469C2102F042
:1006F000CAF82046502102F0C1F83146204602F0E7
:10070000C7F8204602F03AF92046394602F02AF9A5
:100710003946204602F018FA204602F01BFA31460C
:10072000684B97E09DF81220901C884280F29280DE
:100730009DF811109DF810300091002601210191C3
:1007400002960DF11301204602F078FA33465D4916
:100750008DE09DF81220901C984280F288809DF8D0
:1007600011109DF810300091002601210191029690
:100770000DF11301204602F061FA3346514983E03E
:100780009DF81220901C98427EDA9DF811109DF879
:1007900010300091012101910021029120460DF1BC
:1007A000130102F04BFA204602F00AF90228024631
:1007B000F9D908A92046D2B202F016F9204602F073
:1007C0007BF800233F496CE09DF81220901C984272
:1007D00067DA9DF811109DF81030009120460DF158
:1007E000130102F0E1F9204602F0EAF8022802467D
:1007F000F9D908A92046D2B202F0F6F8204602F054
:100800005BF800232F497BE09DF81220901C984252
:1008100076DA59E0304680E002207EE0EBB228A88C
:10082000C218485D0135ADB202F8900CEAB201334E
:10083000032ADBB23FF61FAFF0E728A8C218013346
:10084000485DDBB20135032B02F8900CADB23FF6E8
:1008500029AFF2E728A842180131585DC9B2013525
:10086000032902F8900CADB23FF65CAFF2E728A87E
:10087000C2180133485DDBB20135032B02F8900C3E
:10088000ADB23FF666AFF2E728A8C2180133485D63
:10089000DBB20135032B02F8900CADB23FF670AF1E
:1008A000F2E728A8C2180133485DDBB20135032BFB
:1008B00002F8900CADB287D8F3E700BFC086000005
:1008C00004910000D59000009DF811109DF81030A3
:1008D000009100250121019102950DF1130120469F
:1008E00002F0ACF92946204602F02EF92A23A38013
:1008F000204602F043F8204601F0DEFF28460CE0D7
:1009000028A8C2180133485DDBB20135032B02F879
:10091000900CADB23FF678AFF2E729B0BDE8F083B6
:1009200002B902681078537803EB00230B8010792A
:10093000537903EB00234B80107A537A03EB0023A7
:100940008B80107B537B03EB0023CB800020704710
:1009500037B50C466946FFF7E3FF054618BBBDF9FE
:10096000000006F097FD4FF0625106F0E7FD2060B1
:10097000BDF9020006F08EFD4FF0625106F0DEFD7B
:100980006060BDF9040006F085FD4FF0625106F08D
:10099000D5FDA060BDF9060006F07CFD4FF0625168
:1009A00006F0CCFDE06028463EBD2DE9F843D2F8C4
:1009B0000480D768166895680C464046394606F0AC
:1009C000BDFD29468146304606F0B8FD0146484641
:1009D00006F0AAFC014606F0A9FC4146206030461C
:1009E00006F0ACFD39468146284606F0A7FD0146D3
:1009F000484606F09BFC014606F098FC31466060D4
:100A0000304606F09BFD41460646404606F096FD00
:100A10000146304606F088FC29460646284606F080
:100A20008DFD0146304606F07FFC394605463846C6
:100A300006F084FD0146284606F078FCA060002000
:100A4000BDE8F8832DE9F84FD2F8048014460E462D
:100A5000404641461F4606F069FCD4F800B0814686
:100A60005946584606F062FCA1688246484606F0A0
:100A700065FDE1680546504606F060FD01462846E2
:100A800006F052FC06F0C6F804460D46504659469C
:100A900006F054FD41468246484606F04FFD0146A9
:100AA000504606F043FC4FF07E5106F03DFC06F048
:100AB000B1F802460B462046294604F081FC06F0B8
:100AC000DFFB3060386806F0A5F804467868D7F890
:100AD00008900D46014606F031FD494680464846DD
:100AE00006F02CFD0146404606F020FC06F092F888
:100AF00004F002FE02460B462046294606F008FA9C
:100B000004F0C2FA06F0BCFB7060786806F082F868
:100B100004463868D7F808800D46014606F00EFDF9
:100B200041460746404606F009FD0146384606F0B4
:100B3000FDFB06F06FF804F0DFFD02460B46204691
:100B4000294606F0E5F904F09FFA06F099FBB0603B
:100B50000020BDE8F88FFFFF1FB501A8FFF7F6FCE6
:100B60001B4B1868012102904FF4A0740F2002F073
:100B7000A1FE2346013B7FF4FDAF16491648FFF75F
:100B8000BDFC4FF44873013B7FF4FDAF013C7FF4A3
:100B9000FDAF124C02F0E6FF032814D8236803933C
:100BA000039A019BD31AF92BF4D90CE002F0E8FF69
:100BB00002ABE35C984204D10134042CF6D101204D
:100BC00003E0002001E00024F0E704B010BD00BF06
:100BD000BC860000498E000040F1FF1FE0EEFF1FC1
:100BE00013B56846FFF7B2FC41F2883002F0D2FE3E
:100BF0004FF4A0740F20012102F05CFE2346013B5C
:100C00007FF4FDAF1D491E48FFF778FC4FF4487391
:100C1000013B7FF4FDAF013C7FF4FDAF194C02F0C6
:100C2000A1FF082822D823680193019A009BD31AB8
:100C3000F92BF4D91AE0092402F0A2FF013CFBD100
:100C400010E002F09DFFC1B24F2908D04B2906D019
:100C50000A2904D00D2902D00B48FFF74AFC0120D5
:100C600002F082FE02F07EFF0028EAD102F07AFF55
:100C70000028E0D1044804F0CDF81CBD4E8E0000E1
:100C800040F1FF1FE0EEFF1FA4F1FF1F07B501A811
:100C9000FFF75CFC01210F2002F00CFE0A2002F09D
:100CA00063FE10491048FFF729FC192002F05CFE92
:100CB0000A2002F059FE192002F056FE02F052FFFF
:100CC00030B90AE002F05CFFC1B20848FFF711FC3E
:100CD00002F048FF0028F5D102E0044804F09AF839
:100CE0000EBD00BF5C8E000040F1FF1FA4F1FF1F8E
:100CF00038B5184D002401210F2002F0DBFD55F816
:100D00002430580800F1376000F5D830B0FBF3F01C
:100D100002F040FE642002F027FE0F48042102F09A
:100D2000D7FE642002F020FE02F01CFF50B101E06B
:100D300002F026FF02F016FF0028F9D1054B53F808
:100D4000240038BD013402F06DFE062CD3D14FF0E3
:100D5000FF3038BD04E4FF1F498E00001FB501A815
:100D6000FFF7F4FB354B1868012102904FF4C8647B
:100D70000F2002F09FFD2346013B7FF4FDAF304979
:100D80003048FFF7BBFB4FF4E1312E48FFF7BAFBC9
:100D90002D492C48FFF7B2FB013C7FF4FDAF2B4CF3
:100DA00002F0E0FE032845D823680393039A019BD1
:100DB000D31AF92BF4D93DE002F0E2FE02ABE35C7A
:100DC000984235D10134042CF6D14FF4C863013B6D
:100DD0007FF4FDAF0F2001214FF4A07402F06AFDF3
:100DE0002346013B7FF4FDAF19491648FFF786FB08
:100DF0004FF44873013B7FF4FDAF0F20002102F058
:100E000059FD013C7FF4FDAF02F00CFE192002F009
:100E1000ABFD40F2836002F0BDFD4FF47A7002F04A
:100E2000A3FDFFF765FFB0F5E1335842584103E0F9
:100E3000002001E00024BFE704B010BDBC86000024
:100E40006E8E000040F1FF1F778E0000E0EEFF1F66
:100E50007E8E000038B5154C154D2046FFF780FBFF
:100E6000287098B90121204601F06EFE204601F05D
:100E700023FD104B104918701048FFF74FFB104B23
:100E800001221A70A2880F4B1A8038BD0E490B48F8
:100E9000FFF734FB297809480A22002303F0C8FF32
:100EA0000A490648FFF73AFB38BD00BF14EAFF1FA6
:100EB000D2EBFF1FB0EBFF1F898E0000A4F1FF1FD4
:100EC000FAE9FF1F2CEAFF1FB48E0000D68E000047
:100ED0003D4B1B7870B5002B70D03C4B3C483D4CD3
:100EE00000221A7001F0E8FC01E001F0E5FC00F0DE
:100EF0001200207023783648002BF6D001F060FDF8
:100F0000344B354D1B78288003F01002D2B212B951
:100F1000B0F5806F07D12E4801F030FD2F493048E1
:100F2000FFF7FCFA70BD03F00203DBB223B970BD1A
:100F300001F046FD288000E02A4E32882B88264C9E
:100F400023489342F4D32849D2B201F04DFD254BFA
:100F500022881B8825491E48D31A2380224A244C04
:100F6000FFF7F6FC2349214A1948FFF71EFD1F4AE7
:100F7000204B17482146FFF765FD206805F04AFE23
:100F80000FA3D3E9002305F099FE06F079F920605C
:100F9000606805F03FFE0AA3D3E9002305F08EFE4A
:100FA00006F06EF96060A06805F034FE04A3D3E992
:100FB000002305F083FE06F063F9A06070BD00BF5A
:100FC000F8C1631ADCA54C40FAE9FF1F5CEBFF1F78
:100FD00014EAFF1FB0EBFF1F36EAFF1FD88E000098
:100FE000A4F1FF1F2CEAFF1FD3EBFF1F78EBFF1FBD
:100FF000B8EBFF1FFCE9FF1F2DE9F0439F4B1B7867
:1010000085B0002B00F0B3809D4B1B78002B2BD1BB
:101010009C4B1B7843BB9C4D9C499D48FFF76EFA47
:10102000286805F0F7FD022402460B460094984814
:1010300003F042FF97499648FFF760FA686805F0A9
:10104000E9FD009402460B46914803F035FF9249B2
:101050008F48FFF753FAA86805F0DCFD00940246BC
:101060000B468B4803F028FF854B1B78002B44D0A0
:101070008A4B8B4C8B4F8C4E8C4D01938C4B8D48F7
:10108000029332462B463946009401F037FC8A49D8
:101090007F48FFF733FAB7F900107D48FFF732FABF
:1010A00086497B48FFF72AFAB6F900107848FFF71F
:1010B00029FA83497648FFF721FAB5F900107448F8
:1010C000FFF720FA7F497248FFF718FAB4F90010C9
:1010D0006F48FFF717FA79496D48FFF70FFAB4F92F
:1010E00000106B48FFF70EFA75496948FFF706FADA
:1010F0006748B4F90010FFF705FA624B1B78002B24
:1011000035D0614E704D624803F084FE592160482D
:10111000FFF7EFF92968306806F006F905F07AFD67
:10112000022402460B4600945948FFF701FA502169
:101130005748FFF7DEF96968706806F0F5F805F0C2
:1011400069FD009402460B465148FFF7F1F9522120
:101150004F48FFF7CEF9A968B06806F0E5F805F04A
:1011600059FD009402460B464948FFF7E1F9574BF9
:101170001C78444B1B78002C33D0554C4448CBB9D9
:101180005449FFF7BBF921684148FFF7BBF95249C1
:101190003F48FFF7B3F9514B3D481968FFF7B2F9E3
:1011A0004F493B48FFF7AAF94E4B39481968FFF7FA
:1011B000A9F91FE003F02EFE48213548FFF799F901
:1011C000464B20681B6890FBF3F005F011FD03F01F
:1011D0005BFF0B460221024600912D48FFF7A8F95C
:1011E00008E03BB148212A48FFF783F92848214607
:1011F000FFF78AF93C4B1C78224B1B78002C7DD0E2
:101200003A4C2348DBB93A49FFF778F9206805F0F2
:1012100001FD022402460B4600941D4803F04CFEDB
:1012200034491B48FFF76AF9334B186805F0F2FCA4
:10123000009402460B46164803F03EFE6FE003F0B2
:10124000E9FD41211248FFF754F9206805F0E2FC5E
:10125000022402460B4600940D48FFF769F9542119
:101260000B48FFF746F9244B186805F0D3FC0094AF
:1012700002460B460648FFF75BF950E038EAFF1FCD
:10128000D1EBFF1FFBE9FF1FB8EBFF1FE78E00004C
:10129000A4F1FF1FED8E0000F78E0000F6E9FF1F9E
:1012A000F4E9FF1F58EBFF1F5AEBFF1F0CEAFF1F6B
:1012B000F8E9FF1F14EAFF1F008F00000D8F0000E8
:1012C000138F0000198F0000C4EBFF1F39EAFF1FC6
:1012D00060EBFF1F248F00000E8F00006CEBFF1FE0
:1012E000148F000030EAFF1F70EBFF1F08EAFF1F9A
:1012F000338F0000418F0000F0E9FF1F7BB14121D7
:101300005148FFF7F6F821464F48FFF7FDF8542102
:101310004D48FFF7EEF84C482146FFF7F5F84B4BE8
:1013200049481B78A3B94A49FFF7E8F80E2002F0B4
:1013300097F805F05DFC42A3D3E9002305F0BEFC5D
:101340000B460221024600913F4803F0B5FD16E02E
:1013500003F060FD56213C48FFF7CBF80E2002F069
:101360007FF805F045FC36A3D3E9002305F0A6FC81
:101370000B460221024600913348FFF7D9F8324864
:1013800003F048FD03F032FBC8B103F0E9FAC0B244
:10139000522804D12F4B1A7882F0010203E0422830
:1013A00003D12A4B01221A7009E05A2807D12A4A90
:1013B0002A4B116819605168926859609A6000243C
:1013C0002646274FDFF8BC80DFF8BC902BE025488D
:1013D00001F080FA10B1FFF77BFD29E0254698F86F
:1013E00000304BB1204800F001FF30B11E481F49CA
:1013F0001F4A204B00F0B6FF012699F8003083B158
:101400001D4801F02DF868B11B4801F0CEF81B4BC8
:101410001860194801F0B0F8194B1860164801F02F
:101420003FF8012435B92EB924B93B78002BCED131
:101430000125D4E705B0BDE8F08300BFAFF300801D
:1014400002A0E5D429EAA93FA4F1FF1FFBE9FF1F91
:10145000528F0000D1EBFF1FB8EBFF1FC4EBFF1F43
:1014600038EAFF1F14EAFF1F88EBFF1F60EBFF1F26
:101470006CEBFF1F30EAFF1F0EEAFF1F08EAFF1F99
:10148000F0E9FF1F39EAFF1F70EBFF1FAFF3008089
:101490002DE9F04183000A3323F0070300AF05462E
:1014A000ADEB030D15480021E84601F071FD002465
:1014B0000BE04FF6FF71002003F0D9FD48F824003F
:1014C00001460E4801F09FFE0134AC42F1D30024E6
:1014D000264608E0A10001F0C9FD58F824309842E2
:1014E00018BF01360134AC420448F3D3002101F0A7
:1014F0004FFD3046BD46BDE8F08100BF3CEAFF1F0E
:10150000F0B50F2089B0012102F0F4F90F2001217C
:1015100002F0D0F9062102229B4801F07FFE9B4990
:101520009B4A0B78002BFCD013789807F9D06DE11B
:10153000FFF790FC9748984C00F04BFF97492070BC
:101540009748FEF7DBFF974B2178974A944800298C
:101550000CBF11461946FEF7E1FF944800F0CFFF9B
:10156000934B003018BF012018701C4618B18F48EB
:10157000002100F0A9FF8F4989488B4E894FFEF763
:10158000BDFF2178864800290CBF31463946FEF759
:10159000C5FF0E2001F064FF874904468048FEF72E
:1015A000ADFF204605F024FB71A3D3E9002305F02D
:1015B00085FB05F065FE05F02DFB6FA3D3E9002345
:1015C00004460D4605F0ECFD58B1294620466CA3B3
:1015D000D3E9002305F002FE002814BF3946314646
:1015E00000E031466E48754C6E4DFEF797FF664839
:1015F00001F0C8FC421E50425041207070496848BA
:10160000FEF77CFF684B217865486E4C00290CBFC3
:1016100019462946FEF782FF6B496148FEF76EFFC7
:10162000594801F0A9FC0A22002301465C4803F056
:10163000FFFB66495A48FEF771FF65495848FEF7B7
:101640005DFF4FF40060FFF723FF01465448FEF7AB
:1016500059FF60495248FEF751FF4FF4006150486E
:10166000FEF750FF5C494E48FEF758FFFFF740FB7E
:10167000430803F1376303F5D833B3FBF0F002F00E
:1016800089F9FFF769FA554920704548FEF736FF9A
:10169000534B2178424800290CBF19462946FEF7D2
:1016A0003DFF2378EBB14F493D48FEF727FFFFF799
:1016B00097FA4D493A48FEF721FFFFF7E7FAFFF79F
:1016C0004DFB4A493648FEF719FFFFF711FB01466B
:1016D000334803F0E5FB324803F09CFB304803F04D
:1016E00099FB434B1B786BB12B4B1A78304B1B7813
:1016F0001AB93BB92A483F4902E01BB128483E4984
:10170000FEF7FCFE2F4B1B781BB125483B49FEF72B
:10171000F5FE3B492248364C1F4DFEF7FFFE2048A0
:101720003849FEF7FBFE19E0237813B92B7853B93B
:1017300005E0354801F0CEF80028FAD0F6E71C4B5A
:101740001B785BB105E0134800F050FD0028FAD08B
:10175000F5E7164800F084FE0028FAD003F046F9B9
:101760000028E1D0284801F009F988E0AFF30080B3
:1017700002A0E5D429EAA93F33333333333315408C
:1017800033333333333311403CEAFF1F23F1FF1F60
:1017900034F1FF1F88EBFF1F39EAFF1F708F000035
:1017A000A4F1FF1F638F00005F8F00000EEAFF1F90
:1017B00070EBFF1F848F00009A8F0000D0EBFF1F9B
:1017C000B48F000034EAFF1FCD8F0000DC8F0000D3
:1017D000E38F0000F28F0000F78F000005900000FB
:1017E000678F00001B9000003090000051900000B7
:1017F00038EAFF1F6A900000759000008190000099
:101800008F9000009690000014EAFF1F002105262B
:101810008DE842000A460B461A481B4C00F0E2F9DC
:101820000A2002F0A1F802AD02A800F0F5FF0FCDEA
:101830000FC495E8030044F8040B02A8217000F0DF
:10184000EEFF1148114C01F0A5F8304602F08CF87B
:101850000D4801F006F90E4920700E48FEF74EFEC5
:101860000D4B21780D4A0B4800290CBF1146194633
:10187000FEF754FE2378002B3FF45CAE58E609B027
:10188000F0BD00BF1CECFF1F14EAFF1F38EAFF1F6A
:10189000C4900000A4F1FF1F638F00005F8F000061
:1018A00038B51D4D1D4C284600F066FC28461C4DE1
:1018B0001C49224605F0B8FF284600F0ADFF284637
:1018C000194D1A49224605F0AFFF284600F0A9FD40
:1018D00017492246284605F0A7FF164A1649002355
:1018E00053601382C2F814314FF07E520A60002216
:1018F0004A608A60CA6011490B804B808B80104916
:101900000B804B808B800F490B804B808B800E4B64
:101910001A605A609A6038BD88EBFF1F00E4FF1F11
:1019200014EAFF1F892100000EEAFF1F1F28000094
:10193000252400003CEAFF1F78EBFF1FB2EBFF1FDE
:1019400072EBFF1F64EBFF1FFCE9FF1F014B0360FD
:10195000704700BFD0910000074A1368B3F5817F3C
:1019600005D80648C1540133136001207047012394
:1019700003710020704700BF34ECFF1F38ECFF1FDD
:101980000F4B30B51C68B4F5817F14D8C4F5817352
:1019900001330C4D9A42254402D9012202711A46A4
:1019A000002302E0C85CE85401339342FAD1044BAF
:1019B00014191C6002E0012303710022104630BD9F
:1019C00034ECFF1F38ECFF1F024B1868024B1B68FA
:1019D000C01A704730ECFF1F3CEDFF1F064A074955
:1019E000136809688B4204D20549C85C013313604F
:1019F00070474FF0FF3070473CEDFF1F30ECFF1F8A
:101A000040EDFF1F054B064A1B681268934202D245
:101A1000044AD05C70474FF0FF3070473CEDFF1F29
:101A200030ECFF1F40EDFF1F7047FFFF08B5194B5B
:101A30001B7813F0200314D1174A1370174B1B782F
:101A40000BB9122000E0112001F0B4FD144B1B680B
:101A5000002B1ED0134A00211160134A10689847CA
:101A600008BD124A13780133DBB2012B13700BD877
:101A70000F4B1B78012B07D108BD122000E011206D
:101A8000BDE8084001F096BD044B1B78002BF6D151
:101A9000F3E708BD0360064044EEFF1F2CECFF1F78
:101AA00048EEFF1F3CEDFF1F30ECFF1F18ECFF1F3F
:101AB00043EEFF1F002202710273034A4FF47A7152
:101AC00081600260704700BFD091000070B5384D52
:101AD0009DF810402E689DF8180046F040062E60D4
:101AE000344D2970344D00262E70344D29B92023F1
:101AF0002B70334B1970D97114E0002B0CBF2021CF
:101B00002821297001D09A4201D2510000E05900E9
:101B10002B4D297023B19A4201D25B0000E05300A3
:101B2000284A1370284B9DF814201C7040F20323A0
:101B3000002A08BF4FF4197324B9244A136042F8ED
:101B4000043C03E0224A136004321360214B0A284C
:101B50001BD8DFE800F01A06080A0C0E1012141643
:101B600018001F2212E01D2210E085220EE0142230
:101B70000CE045220AE00D2208E00B2206E00922D3
:101B800004E0022202E0002200E027221A70124B39
:101B900004221A70074B1A78104B0AB9802200E011
:101BA000C0221A700E4B4FF400621A6070BD00BF65
:101BB0003480044043EEFF1F44EEFF1F05600640E3
:101BC00000600640076006402CECFF1F0CA004409C
:101BD00000A0044001600640066006400260064026
:101BE00000E100E01FB500939DF8183001939DF8C7
:101BF0001C3002930023FFF769FF05B000BDFFFF13
:101C000010B59A499A4A0C78137803F02000C0B2B4
:101C1000002800F09B8003F01003D8B2954B0028F9
:101C20004AD01878012819D114F00104924808D03C
:101C300002680AB9052200E006221A7080228C4B45
:101C4000D8E00168013101608C480068814201D30D
:101C50001C7025E08A4B5A5C8A4BCBE0187802282E
:101C60001BD104F01000C0B228B1072018708023E7
:101C70001370122375E0E10702D50521197013E0F6
:101C800003211970804B1B68012B01D1E82300E070
:101C9000E02313707B4B1B78E0E01B78042B08D10A
:101CA0007A4B1B78012B01D1802300E0B023137005
:101CB000D4E08023137053E0754A1168724A1268A9
:101CC0000231914200F0CE801B78042B04D1714B7D
:101CD0001B78002B00F0C6806D4B6B491B680968B0
:101CE0005A1C8A4280F0E68062490978042940F053
:101CF000EA8068490978002940F0DC80E3E01A7046
:101D00005B4BB0221A70624A98781368B3F5817FF2
:101D100003D86149C854013313605C4B1B78012B15
:101D200002D1534B80221A70524B1B7803E05A4861
:101D3000C154574B1A604F4B1B78042B40F08E80D8
:101D4000544B1A78002A00F0C58087E004F0100296
:101D5000D2B242B110220A7004F04002D2B212B9DB
:101D600002230B7010BD14F0400145D0414B1B788D
:101D7000092B04D1494B1B68002B40F0AD8014F0B7
:101D800004041FD03B4B08221A703C4A0023136006
:101D9000434B1B68144603B1984723680BB9384A74
:101DA0001370334A3F49C0231370364B18784008EC
:101DB0000870D0211170324A12781A702E4B01220D
:101DC0001A604BE0384B1C70384B1B780BB9122053
:101DD00000E011200322364901F0C2FB254B092205
:101DE0001A702B4B00221A60214BC0221A709A786D
:101DF0002C4B52081A7031E013F0100317D014F076
:101E00000104204A0CD11C491C480B68006883421D
:101E100003D21B48C45C01330B601470D0220EE760
:101E2000134BC02018701378124B197016E01E4A1D
:101E300013701E4B1B780BB9122000E011200322F7
:101E40001B4901F08DFB0F4B114A18781368B3F54D
:101E5000817F03D81049C85401331360034B022219
:101E60001A7010BD024BE8221A7035E70360064075
:101E70000260064044EEFF1F14ECFF1F34ECFF1F0E
:101E800038ECFF1F0460064050EEFF1F1CE4FF1FEC
:101E900030ECFF1F46EEFF1F40EDFF1F48EEFF1F17
:101EA0004CEEFF1F45EEFF1F18ECFF1F2CECFF1F31
:101EB0002D1A00000C4B00221A700C4B19780429C3
:101EC0007FF41DAF1CE70A49B3F5817F09787FF6DF
:101ED0002EAF30E701228DE7064A00211160064A45
:101EE000106898474BE700BF46EEFF1F44EEFF1F08
:101EF000046006403CEDFF1F30ECFF1F054B49001E
:101F00001970054B01221A60044A002303711370F3
:101F1000704700BF38ECFF1F34ECFF1F44EEFF1F7B
:101F2000C9B2FFF7EBBFFFFF154B1B6833B3154B6F
:101F300012221A70144A107800F02000C0B210B1BA
:101F4000B42313700BE01846027802F02002D3B2DB
:101F5000002BF9D10D4A13700B4BB0221A700C4BA9
:101F600001221A700B4B19700B4B00221A60064BA2
:101F7000F0221A70094B1A78094B1A70704700BF8B
:101F800034ECFF1F036006400260064043EEFF1F73
:101F900044EEFF1F1CE4FF1F14ECFF1F38ECFF1F73
:101FA0000460064010B552B315480260154800227F
:101FB000026015480260154A122010701448047817
:101FC00004F02004E4B214B1B42202700BE0144611
:101FD000207800F02000C2B2002AF9D10D4802702A
:101FE0000B4AB02010700C4A022010700B4A4900B6
:101FF0001370074BF02241F001011A70997010BD67
:1020000050EEFF1F3CEDFF1F30ECFF1F036006404A
:102010000260064043EEFF1F44EEFF1F1CE4FF1F5B
:10202000094B1B78043B032B07D8DFE803F00402BD
:102030000B0402207047042070470079003018BF5D
:10204000012070470320704744EEFF1F094B1A78A8
:102050006AB11A78052A0AD01A78062A07D01878A1
:10206000B0F1070CDCF1000050EB0C0070470120D0
:10207000704700BF44EEFF1F70B506460C4601F0E6
:1020800055FC05463046FFF7E1FFC8B9002CF9D0F2
:1020900001F04CFC401BA042F4D311E01A78022A54
:1020A00012D01B78032B0FD04FF4A073013B7FF4A9
:1020B000FDAF074B1878D0F1010038BF002070BD8C
:1020C000034B1A78012AE9D1014B04221A70EBE77D
:1020D00044EEFF1F38B5054614464AB1FFF762FFCC
:1020E00028460499FFF7C8FF18B1024B186838BD9D
:1020F000104638BD30ECFF1F07B541F2883300931E
:10210000C9B20123FFF7E6FF0EBD07B541F28833E0
:1021100000930123FFF7DEFF0EBD38B504461546D8
:10212000FFF702FF20462946FFF7A6FF2046BDE83D
:102130003840FFF775BF41F28832FFF7EEBF01214B
:1021400041F28832FFF7E9BF10B5054C2046FFF792
:10215000B1FC0449044A2046BDE8104005F064BBC8
:102160001CECFF1F4D19000000E4FF1F08B50368B9
:10217000C9B21B68984708BD002202764FF07E5214
:1021800002604260826070477047FFFF10B51648DA
:102190000C461E21FFF7C4FE0A211348FFF7E6FF95
:1021A0001148FFF7CCFF1E2103220F48FFF7A4FFC1
:1021B0000D48FFF709FC03280CD10B48FFF70EFC74
:1021C00020700948FFF70AFC60700748FFF706FC1B
:1021D000A07003E0002323706370A3700248BDE881
:1021E0001040FFF7ACBF00BF1CECFF1F10B50C4C3C
:1021F0001E212046FFF794FE09212046FFF7B6FF77
:102200002046FFF79CFF1E2101222046FFF774FFA6
:102210002046FFF7E3FBB0F111035842584110BDCF
:102220001CECFF1F70B50A4C0D4620461E211646B9
:10223000FFF776FE29462046FFF78EFB2046314603
:10224000FFF78AFB2046BDE87040FFF778BF00BF6C
:102250001CECFF1F072938B505460C4606D84A0175
:1022600002F0E0020121FFF7DDFF2C7638BDFFFF11
:102270002DE9F04104460F4628481E211D4616460A
:10228000FFF74EFE03212548FFF770FF2348FFF7B5
:1022900056FF1E2106222148FFF72EFF1F48FFF799
:1022A00093FB062820D11D48FFF798FB80461B486A
:1022B000FFF794FB40EA082000B238601748FFF7A8
:1022C0008DFB80461548FFF789FB40EA082000B2E5
:1022D00028601248FFF782FB80461048FFF77EFB1C
:1022E00040EA082000B230603B6813F5805F07D0F9
:1022F000336813F5805F03D02B6813F5805F0AD134
:10230000217E062907D80131C9B220462176BDE8D1
:10231000F041FFF79FBFBDE8F08100BF1CECFF1F3D
:10232000F0B585B004460F46164601A902AA1D461F
:1023300003ABFFF79DFF019805F0ACF8216805F0AD
:10234000B1F93860029805F0A5F8616805F0AAF9BE
:102350003060039805F09EF8A16805F0A3F92860A5
:1023600005B0F0BD7FB50E4615461C4602AA03AB6C
:1023700001A9FFF7D5FF019804F04CFC00220D4B9A
:1023800004F0EAFA04F034FF3060029804F042FCF2
:102390000022084B04F0E0FA04F02AFF28600398BA
:1023A00004F038FC0022034B04F0D6FA04F020FFBE
:1023B00020607FBD0000E03F022908B50A4607D82B
:1023C0000221FFF72FFF6420BDE8084001F0CCBADE
:1023D00008BD13B501A90446FFF7D8FE9DF80430E7
:1023E000482B1CD19DF80530342B18D19DF80630B0
:1023F000332B14D120460021FFF7DEFF20460021B9
:102400007C22FFF70FFF204601210022FFF70AFF81
:10241000204602210022FFF705FF012000E00020F6
:102420001CBD70477047FFFF38B50C4C0D46204669
:102430006021FFF775FD29462046FFF78DFA002140
:102440002046FFF778FE602101222046FFF754FE68
:102450002046FFF7C3FAC0B238BD00BF1CECFF1F17
:1024600008B51221FFF7E0FFC0F3C01008BDFFFF61
:1024700070B50A4C0D46204660211646FFF750FD08
:1024800029462046FFF768FA31462046FFF764FAEE
:1024900020460121BDE87040FFF74DBE1CECFF1F38
:1024A00038B526210446FFF7BFFF40F0020205467B
:1024B00026212046D2B2FFF7DBFF204626212A46FE
:1024C000BDE83840FFF7D4BF70B50E46262104465C
:1024D000FFF7AAFF0546262105F0B802204625F0A1
:1024E0007E05FFF7C5FF45EAC60606F0F90220465D
:1024F000262142F08102BDE87040FFF7B9BF10B558
:102500000C210446FFF790FFC42810D12621B922E0
:102510002046FFF7ADFF292180222046FFF7A8FFC4
:10252000204613210722FFF7A3FF012010BD002042
:1025300010BDFFFF70B50F480C46602115461E46C2
:10254000FFF7EEFC21460B48FFF706FA0021094889
:10255000FFF7F1FD074860212A46FFF7CDFD002473
:1025600004E00448FFF73AFA30550134AC42F8DB96
:1025700070BD00BF1CECFF1F38B5044603460421A4
:102580000222FFF7D7FF94F9000004F083FF05460D
:102590006078000904F07EFF4FF0765104F0CEFF22
:1025A0000146284604F0C2FE38BD38B5044603464D
:1025B00001210322FFF7BEFFA078000904F06AFFA3
:1025C0004FF0765104F0BAFF63780546207843EA6D
:1025D000002000B2002805DA04F05CFF294604F070
:1025E000A3FE38BD04F056FF294604F09FFE38BD17
:1025F0002DE9F04F154689B0324A029313680191D4
:10260000059300240746BDF84860DDF81480A14614
:1026100030E02D483946FFF771FC01992A48FFF751
:102620009BF92948FFF78BFD27483946FFF766FCE1
:1026300040F203132A1B9A42A8BF1A462248394681
:10264000FFF763FD029B43FA89F34FF0000A0393FF
:102650000AEB090B1C485FFA8BFBFFF7B5F9E8B1F1
:102660001EB3184B196806910699C8EB0101B142D7
:102670001BD313E0AC42CCD36EB1124A126807925E
:10268000079AC8EB0208B04505D34FFA89F2AA426F
:10269000B8BF4FF0FF094FFA89F00FE00A486419FC
:1026A000FFF74DFDE4B2D946E4E70748FFF796F996
:1026B000039B03F80A000AF1010AC9E709B0BDE863
:1026C000F08F00BFE0EEFF1F1CECFF1F13B5144698
:1026D000009301222346FFF78BFF1CBD37B515463B
:1026E0001C460DF10702BDF81C30FFF7EFFF70B17B
:1026F00001232A1B03FA04F401329DF80730013C40
:1027000004FA02F41C40069B44FA02F21A703EBD21
:1027100037B51C461546BDF818300DF10702FFF716
:10272000D5FF012303FA05F59DF807301D402570FC
:102730003EBDFFFFF8B507460C460D483946154625
:102740001E46FFF7DBFB21460948FFF705F9002489
:1027500003E0315DFFF700F90134E3B2AB42044816
:10276000F7D3FFF7ECFCD0F1010038BF0020F8BD33
:102770001CECFF1F07B502AB03F8012D0122FFF788
:10278000D9FF0EBDF7B51C46114B17461B880DF13E
:10279000070206460D46FFF799FFC0B101223B1B19
:1027A00002FA04F49DF820200133013C04FA03F4FA
:1027B00002FA03F39DF80720E4B222EA04021C4067
:1027C0002243304629468DF80720FFF7D3FFFEBD90
:1027D0001EE4FF1F2DE9F3411E460E4B14461B88D5
:1027E0000DF1070280460F46FFF770FF01229DF8AA
:1027F000075002FA04F216B12A43D2B201E025EAE8
:102800000202404639468DF80720FFF7B3FFBDE8C6
:10281000FC8100BF1EE4FF1F6823037070477047F0
:1028200000780A461921FFF7A5BF07B503230078F2
:10283000009105221A21FFF7A5FF0EBD07B503235E
:102840000078009102221A21FFF79CFF0EBD07B508
:1028500002230078009104221B21FFF793FF0EBD95
:1028600007B502230078009104221C21FFF78AFF9C
:102870000EBD00780A461F21FFF77CBF00780A468C
:102880002021FFF777BF00780A462121FFF772BFAA
:1028900000780A462221FFF76DBF032906D80323DB
:1028A000594325310078C9B2FFF764BF70470078FB
:1028B0000A463821FFF75EBF10B50246044B0446B6
:1028C0003A2112F8010B1B88FFF700FF607810BD5A
:1028D0001EE4FF1F13B5084A0346128804463A2136
:1028E00013F8010B00920022FFF712FF607800300E
:1028F00018BF01201CBD00BF1EE4FF1FF7B5164620
:10290000174A1D461288034604460F4613F8010B6A
:1029100000923B210E22FFF76BFE6278A37843EA18
:1029200002233B80E278237943EA022333806279F1
:10293000A37943EA02232B80A37A627A43EA022234
:10294000089B1A80237BE27A43EA0222099B1A80C1
:10295000A37B627B43EA02220A9B1A80FEBD00BF72
:102960001EE4FF1F00780B4606226A21FFF732BFE4
:1029700000780B4605226A21FFF72CBF00786A21F8
:1029800002220123FFF726BF012200786A211346A5
:10299000FFF720BF00786B2107220123FFF71ABF42
:1029A00000780B4606226B21FFF714BF07B50323FF
:1029B0000078009102226B21FFF7E4FE0EBDFFFFBD
:1029C00013B5084A034612880446722113F8010B16
:1029D00000920222FFF70CFE6078A37843EA002001
:1029E0001CBD00BF1EE4FF1F07B50B46034900785E
:1029F000098800917421FFF7FBFD0EBD1EE4FF1F47
:102A000013B50346044613F8010B0093044B1B88CF
:102A10000622019375211346FFF760FE60781CBD06
:102A20001EE4FF1F08B5FFF7EBFFB0F13403584277
:102A3000584108BD10B50446FFF7F4FF80B12046A9
:102A40000121FFF7B3FF20460021FFF700FF2046DA
:102A50000021FFF705FF20460021FFF7A1FF01201D
:102A600010BDFFF7E7BFFFFF13B5064A0346128804
:102A70000446002113F8010B00920A46FFF748FEB6
:102A800060781CBD1EE4FF1F0B46007800210A463B
:102A9000FFF7A0BE13B50346044613F8010B0093DD
:102AA000054B1B880622019300211346FFF716FEF3
:102AB00094F901001CBD00BF1EE4FF1F07B5C9B299
:102AC00006220078009113460021FFF75BFE0EBD41
:102AD00013B50346044613F8010B0093054B1B88FE
:102AE0000622019301211346FFF7F8FD94F9010036
:102AF0001CBD00BF1EE4FF1F07B5C9B20622007847
:102B0000009113460121FFF73DFE0EBD13B50346AC
:102B1000044613F8010B0093054B1B880622019312
:102B200002211346FFF7DAFD94F901001CBD00BF36
:102B30001EE4FF1F07B5C9B20622007800911346B4
:102B40000221FFF71FFE0EBD00780B4607226A2107
:102B5000FFF740BE00786A2103220123FFF73ABE47
:102B600010B5144601F01F020BB142F020020CB167
:102B700042F0400200786D21BDE81040FFF7FABD39
:102B800000780A466E21FFF7F5BDFFFF10B502463B
:102B9000044B04466F2112F8010B1B88FFF796FDCA
:102BA000607810BD1EE4FF1F2DE9F74F17469DF812
:102BB0003040DFF884B0002280468A4699461946A4
:102BC0001346FFF7CDFF40462146FFF7D9FF00250A
:102BD0002EE005F11003BB42C4BFC5EB0706F6B2F9
:102BE000C4F58073D8BF10269E4201DD6642F6B25E
:102BF000BBF8003098F8000000930AEB0503751944
:102C00006F213246ADB2FFF7F3FC3419BD42E4B296
:102C100010D21CB909F101095FFA89F90022404676
:102C200049461346FFF79CFF40462146FFF7A8FFA1
:102C3000BD42CED3BDE8FE8F1EE4FF1F2DE9F04F4D
:102C400087B0064603929DF844209DF840500492B8
:102C5000002205919A46194613469DF84880FFF7D1
:102C60007FFF30462946FFF78BFF049B1BB11020E6
:102C700004F01CFE8146B8F1000F03D0102004F0D0
:102C800015FE07464FF0000B69E0039A0BF11003A5
:102C90009342C4BFCBEB0204E4B2C5F58073D8BF46
:102CA00010249C4201DD6C42E4B2B8F1000F04D163
:102CB0000BE0CA5CFA54013303E0059A002302EBEF
:102CC0000B01DAB2A242F4D302E0059B03EB0B073F
:102CD000224630786F213B46FFF72CFD049A32B331
:102CE000B9F1000F23D00022134630465146FFF7BA
:102CF00037FF30462946FFF743FF224A30781388D2
:102D00006F21009322464B46FFF772FC3846494636
:102D1000224605F0A7F850B1484604F0CFFDB8F1BF
:102D2000000F02D0384604F0C9FD002026E004EB75
:102D30000B0C039B1FFA8CFB65199B45EDB211D25E
:102D40001DB90AF1010A5FFA8AFA0022304651469B
:102D50001346FFF705FF30462946FFF711FF039A98
:102D6000934592D3049B13B1484604F0A7FDB8F1F4
:102D7000000F02D0384604F0A1FD012007B0BDE8E5
:102D8000F08F00BF1EE4FF1F1FB59DF81840009490
:102D90009DF81C40019401240294FFF74FFF04B0FA
:102DA00010BD2DE9F04F814687B00D4692469846FA
:102DB000002B4FD0082004F079FD07464AE0621C42
:102DC000A11C92B289B204F1030C2B5DAA5C6E5C6B
:102DD0001FFA8CFBB8F1000F02D0002E48D124E07E
:102DE000002E42D121E0384631460492059305F089
:102DF000D5F8059B049A0746002105EB0B0402E079
:102E0000605C7854013188B2B042F9D3009201225B
:102E1000019200220292484639463246FFF70EFFE1
:102E200006EB0B04A4B2B0B90CE015F80B30043477
:102E3000012BA4B206D199F8000038213222FFF705
:102E400099FC08E0B8F1000F02D0384604F036FDD6
:102E5000002010E000245445B1D3B8F1000F02D097
:102E6000384604F02BFD012005E005EB0B07CDE70C
:102E7000042EC1D9B7E707B0BDE8F08F0123FFF7F3
:102E800090BF00780A467021FFF774BC00780A46AC
:102E90007121FFF76FBCFFFF70B50A4E037856F83B
:102EA00033300125044683F80051052100F040FA33
:102EB000204600F023FA237856F8333083F8805008
:102EC00070BD00BFF891000008B5FFF7E5FF00F006
:102ED000010008BD70B504462046FFF7F5FF002845
:102EE000FAD12046FFF7D8FF00F00200C0B278B94F
:102EF0002378084E56F83330012583F800512046D8
:102F0000062100F015FA237856F8333083F8805004
:102F100070BD00BFF891000070B50446FFF7D4FF04
:102F200030BB2378134E56F83330012583F8005117
:102F30009F21204600F0FCF9204600F0DFF92072C6
:102F4000204600F0DBF96072204600F0D7F903F06C
:102F50003FFE0B4602464FF08041002002F032FA5D
:102F600004F06EF92378E06056F8333083F880502F
:102F700070BD00BFF891000010B50446FFF7CCFF0C
:102F8000E06810BD10B50446FFF7C6FF207A10BDFB
:102F90002DE9F04104460E46FFF796FF804610B13A
:102FA0000020BDE8F0812378134F57F83330012516
:102FB000202183F800512046360300F0B9F9B6F518
:102FC000FE2FEDDA2046C6F3074100F0B1F93112C9
:102FD000204601F0F00100F0ABF92046414600F038
:102FE000A7F9237857F83330204683F88050FFF74D
:102FF00071FF2846BDE8F081F8910000F8B504465D
:103000000D46FFF761FF60BB2378174E56F833304B
:10301000012283F800212046032100F089F9C5F33D
:103020000741204600F084F9C5F30721204600F04F
:103030007FF9E9B2204600F07BF92546671D04E0E0
:10304000204600F05BF985F817010135BD42F7D144
:10305000237856F83330012283F88020D4F8180101
:10306000F8BD0020F8BD00BFF891000038B5044657
:103070000D46FFF729FF30B929462046FFF7BEFF6E
:1030800004F0ACFB38BD002038BDFFFF09488918AB
:103090000840002803DA013860F0FF000130C0B2B8
:1030A000904204D2D0F1010038BF002070470120C7
:1030B000704700BFFF0000802DE9F84304468946B1
:1030C00015461E46FFF700FF0746002839D1B6F522
:1030D000807F36D8E368AA199A422CD331E019F8D8
:1030E0000510204600F024F90135B542F7DB2378BE
:1030F00057F833300125204683F88050FFF7EAFE69
:103100002846BDE8F883FF2E0CD8E3689D420CD218
:103110002046FFF7D9FE00280CBF4FF0FF300320F8
:10312000BDE8F8830420BDE8F8830520BDE8F883F6
:103130000220BDE8F883204629463246FFF7A6FF65
:1031400060B91548AB191840002803DA013860F05F
:10315000FF000130731E9842EADBD4E72378DFF8E2
:103160003C8058F83330012283F8002120460221A8
:1031700000F0DEF8C5F30741204600F0D9F8C5F3AA
:103180000721204600F0D4F8E9B220463D4600F081
:10319000CFF84746A9E700BFFF000080F891000084
:1031A00010B544680A4600210182013400F1120181
:1031B0004FF480734460BDE81040FFF77DBF028A82
:1031C00038B5D31CFF2B04460DD8C0F818110023C6
:1031D0008518E11891F81801E9180133042B887457
:1031E000F7D104322282238AFC2B0BDD2046D4F84F
:1031F0001411FFF7D5FFD4F8143103F58073C4F828
:10320000143138BD38BD10B50446084604F042F903
:1032100001462046BDE81040FFF7D1BF38B505464E
:10322000017008460121144600F064FB2A782A4BFD
:1032300053F83230012283F88020284B1A68022C80
:1032400042F480521A600FD9042C10D9082C10D9DE
:103250000C2C11D9102C12D9202C13D9204B214A17
:10326000402C98BF1A460EE04FF000420BE00022BF
:1032700009E041F2010206E042F2020203E043F2F9
:10328000030200E0184A1949086842F06053984266
:1032900042F0F0420846A1F10C0117D1144C246809
:1032A000944213D1134A4FF000430B604FF4107354
:1032B0004FF4007113602846516042F8043CFFF758
:1032C0002BFE2846BDE83840FFF704BE0A4C0C60D0
:1032D0000360074B1A60E5E7F89100003C8004406A
:1032E0000550010006600100044001000CC00240CE
:1032F00010C0024018B0044001400080094B1A6819
:1033000042F480621A602C334FF000421A60064A81
:10331000FF2111601A68002AFCDA044B1868C0B259
:10332000704700BF00C0024034C0024038C00240B5
:10333000074B1A6842F480621A602C334FF0004247
:103340001A60044A11601A68002AFCDA704700BF4C
:1033500000C0024034C0024070B5164A136813F032
:103360008003FBD1144A116856689568D4681069C7
:103370007118143249191268091909188918C1F30A
:103380004E010E4A41F400411160D16A166B556B33
:10339000946BD06B711840324919126809190918D9
:1033A0008918C1F34E01064A41F400411160054AF3
:1033B000137070BD24B0034038B003402CB00340FC
:1033C00030B0034055EEFF1F1C4B60221A70E12203
:1033D0005A701B4B1B4A19781B4B082901D101213C
:1033E00002E00A2903D139211160132206E00C29D9
:1033F00001D1352100E03D21116012221A60134BEA
:103400001A78134B02B101221A60124B1A78124B30
:10341000012A01D880220CE0042A01D8842208E085
:10342000082A01D8852204E0102A01D8862200E06B
:1034300087221A60094B01221A707047004007402A
:1034400020E4FF1F08B003400CB0034056EEFF1FFE
:1034500020B0034021E4FF1F24B0034055EEFF1FBE
:103460000D2810B5044609D9172801D80E3C04E0F0
:10347000A0F12203052B18D8183CE4B20C4B1B78A2
:103480000BB1FFF769FF0B4B1A5D0B4B1A601C4623
:1034900001E001F079FB23681B06FAD5074B186899
:1034A000074B1B7820FA03F010BD002010BD00BFB1
:1034B00055EEFF1FE891000000B0034010B003403C
:1034C00054EEFF1FFEE7FEE7024B1A6801321A6056
:1034D000704700BFE0EEFF1F7047FFFF024A13680E
:1034E000181810601846704724E4FF1F002300E0FE
:1034F0000133C25C002AFBD11846704710B5002387
:10350000B0FBF2F402FB1400092801D8303000E0CF
:103510003730C85420460CB10133F1E7CA18547053
:10352000224605E0885CCC5C8C54C8540132013BD7
:103530009A42F7DB084610BD084B4FF480721A60C0
:103540004FF400721A604FF480621A604FF4006208
:103550001A604FF480521A60704700BF04E100E027
:10356000212830B521D8042A1FD8DFE802F0070946
:10357000050B03000B2306E00A2304E0082302E006
:103580000C2300E00923094A02EBC002526872B61C
:103590001468074D24F47024146044F0807444EAE5
:1035A000034345F82010136062B630BDF891000067
:1035B00058EEFF1F094B03EBC0035B6872B61A6835
:1035C00022F0877222F4803242F080721A60044B3B
:1035D000002243F8202062B6704700BFF891000037
:1035E00058EEFF1F114B10B51C68E0041C6004D599
:1035F0000F4BDA680AB1DB689847A10404D50C4B7D
:103600001A690AB11B699847A20604D5084B1A6EBD
:103610000AB11B6E9847E30606D5054BD3F8842004
:1036200012B1D3F88430984710BD00BFA090044079
:1036300058EEFF1F1F4B10B51C68E0031C6004D53B
:103640001D4B1A680AB11B689847A10304D51A4B91
:103650005A680AB15B689847E20704D5164B1A6CA2
:103660000AB11B6C9847A30704D5134B5A6C0AB1D7
:103670005B6C9847200704D50F4B9A6C0AB19B6C82
:103680009847610704D50C4BDA6C0AB1DB6C98479C
:10369000220304D5084B5A6E0AB15B6E9847630348
:1036A00006D5054BD3F8802012B1D3F88030984767
:1036B00010BD00BFA0A0044058EEFF1F2C4B10B55A
:1036C0001C6820071C6004D52A4B5A6A0AB15B6A41
:1036D0009847E10604D5274B9A6A0AB19B6A984736
:1036E000620604D5234BDA6A0AB1DB6A98472306DF
:1036F00004D5204B1A6B0AB11B6B9847A00604D562
:103700001C4B5A6B0AB15B6B9847E10704D5194B08
:10371000DA6B0AB1DB6B9847A20704D5154B9A6D9B
:103720000AB19B6D9847630704D5124BDA6D0AB155
:10373000DB6D9847A00504D50E4BDA6E0AB1DB6E3F
:103740009847E10504D50B4B1A6F0AB11B6F9847D8
:10375000620504D5074B5A6F0AB15B6F9847230582
:1037600004D5044B9A6F0AB19B6F984710BD00BFF8
:10377000A0B0044058EEFF1F1E4B10B51C68E007B8
:103780001C6004D51C4B9A680AB19B6898472106B7
:1037900004D5194B5A690AB15B699847E20604D50A
:1037A000154B9A690AB19B699847630704D5124B78
:1037B000DA690AB1DB699847200704D50E4B1A6A0B
:1037C0000AB11B6A9847A10704D50B4B9A6B0AB143
:1037D0009B6B9847A20604D5074B1A6D0AB11B6D67
:1037E0009847630604D5044B5A6D0AB15B6D984740
:1037F00010BD00BFA0C0044058EEFF1F094B10B51C
:103800001C68A2071C6004D5074B9A6E0AB19B6E18
:103810009847E30704D5044BDA6F0AB1DB6F98478A
:1038200010BD00BFA0D0044058EEFF1F044B054957
:1038300000221A600A60044A106010221A60704761
:1038400014D0034004D0034000D0034010B5FFF76C
:1038500073FE114B114A124C00204BF6FF71186099
:10386000596028231360936013619361136293621C
:1038700013639363092222600A4C20600A480160A6
:103880000A490B608B600A4B1A60FFF79DFDBDE88B
:10389000104000F0DDBF00BF048003400C800340F7
:1038A0000080034004900340089003400C900340C4
:1038B00000900340212810B518D80D4A52F8303036
:1038C00093F880423CB1012211B183F8802010BDF1
:1038D00083F8002110BD02EBC00043681A6811B1E3
:1038E00042F0030201E022F002021A6010BD00BFA4
:1038F000F8910000212816D80B4A02EBC0030129D9
:103900005B6852F8302004D182F880124FF4A27222
:1039100008E0002082F8800211B94FF4807201E0C3
:1039200040F203121A607047F891000072B60B4B18
:103930000B491A680B4B1B68096862B6490102D52E
:10394000322A88BF0133C2F5BB32FF326021B2FB9D
:10395000F1F24FF47A7000FB0320704718E000E0AA
:1039600004ED00E0E0EEFF1F70B50446FFF7DEFF58
:1039700005466CB140F2E736FFF7D8FF401BB04276
:1039800003D9013C04D005F57A7501F0FDF8F3E7A1
:1039900070BDFFFF184B1A6842F480621A60174A24
:1039A00000231370164A1370164A1370164A1370C8
:1039B000164A1370164B40F213321A604FF45172CC
:1039C0005A60144BC0F344321A70C0F347125A7055
:1039D00000F01F00104A98720221042313705174E2
:1039E000D3740E4B88221A703C2203F80D2C0C4B1A
:1039F0004FF480321A6070473480044066EFFF1F36
:103A0000E5EEFF1F68EFFF1F67EFFF1FE4EEFF1FEC
:103A100040A0044000A0064002A0064010A00640BE
:103A200000E100E00E4B1B685B0510B503D410BD30
:103A300001F0AAF800E00B4C2378002BF8D10A4AD9
:103A40004FF480311160094A0949137040F20312A2
:103A50000A604A60074A1370074A137010BD00BF1E
:103A600034800440E4EEFF1F80E100E003A0064044
:103A700040A0044066EFFF1FE5EEFF1F0E4B1B68E2
:103A80005A0570B5064616D50C4B0D4D1C78013401
:103A90003F2C88BF002401E001F076F82B78A34288
:103AA000FAD0084B1E55084B01221A70034B1C70AC
:103AB000064BBC221A7070BD3480044068EFFF1FB3
:103AC00067EFFF1FE6EEFF1FE4EEFF1F03A00640B7
:103AD000184B1B682DE9F0478A465905064627D53D
:103AE0000546154FDFF860801BE03C7898F80090A1
:103AF00001343F2C88BF0024A14508D015F8012BC4
:103B00000E4B1A550E4B01221A703C7009E00D4BFA
:103B1000BC221A7001F038F898F800304B45F9D003
:103B2000ECE706EB0A039D42DFD3064BBC221A707A
:103B3000BDE8F0873480044068EFFF1FE6EEFF1F0A
:103B4000E4EEFF1F03A0064067EFFF1F10B5044C13
:103B500001E001F019F82378002BFAD110BD00BF65
:103B6000E4EEFF1F044B1878044B1B78984238BFD3
:103B70004030C01A704700BF66EFFF1FE5EEFF1F21
:103B8000084B094A19781378994208D00133DBB2FF
:103B90003F2B88BF00230549C85C137070474FF066
:103BA000FF30704766EFFF1FE5EEFF1F26EFFF1F98
:103BB000054B1A78054B1B789A4202D0044AD05C18
:103BC00070474FF0FF30704766EFFF1FE5EEFF1FB5
:103BD00026EFFF1FF8B5304B1B7813F0300F21D0C4
:103BE00072B62E4B197831B90F3B40221B782C4B03
:103BF0001A7062B616E062B62A4B2B4C1A782B4B21
:103C00002B4D1878531CDBB23F2B88BF002326783E
:103C100083421CBFEE541A46013911F0FF01F1D165
:103C2000204B1A70234B1B7819465BB2002B20DA0D
:103C3000194A137818061CD51F4B204E1F78204BAD
:103C4000194D1B781F4CBB420AD00133DBB23F2B0E
:103C500088BF00231078F05C287020780728F2D9FC
:103C6000174A13700C4B1B781B0602D5114B7C2294
:103C70001A7001F04003DBB25BB1074B1B7803F015
:103C80004003DBB22BB1104B00221A70094B3C22CF
:103C90001A70AFF30080F8BD04A0064016A00640DD
:103CA00011A0064066EFFF1F07A00640E5EEFF1FCC
:103CB00026EFFF1F03A0064068EFFF1FE6EEFF1F81
:103CC00067EFFF1F14A00640E4EEFF1F0E4B1B68BA
:103CD0001A0570B5064616D50C4B0D4D1C780134EF
:103CE000272C88BF002401E000F04EFF2B78A34270
:103CF000FAD0084B1E55084B01221A70034B1C705A
:103D0000064BAC221A7070BD34800440D5EFFF1F03
:103D1000D4EFFF1F6BEFFF1F69EFFF1F03B00640DB
:103D200038B54518044603E014F8010BFFF7CEFF41
:103D3000AC42F9D138BDFFFF10B5044C01E000F0F2
:103D400023FF2378002BFAD110BD00BF69EFFF1FBE
:103D5000044B1878044B1B78984238BF4030C01A87
:103D6000704700BFD3EFFF1F6AEFFF1F084B094AE0
:103D700019781378994208D00133DBB23F2B88BF02
:103D800000230549C85C137070474FF0FF3070473F
:103D9000D3EFFF1F6AEFFF1F93EFFF1F054B1A784A
:103DA000054B1B789A4202D0044AD05C70474FF012
:103DB000FF307047D3EFFF1F6AEFFF1F93EFFF1F26
:103DC00010B5234B1B7803F02003DBB27BB1214BF2
:103DD000214A1878137821490133DBB209783F2B47
:103DE00088BF00238B4202D01D49C85413701D495F
:103DF0000B7818465BB2002B16DA154B1B781B06A6
:103E000012D5194B194A1C7813789C4202D16C23A5
:103E10000B7009E00133DBB2272B88BF0023144964
:103E2000CC5C0C490C70137000F04003DBB25BB14A
:103E3000074B1B7803F04003DBB22BB10D4B002284
:103E40001A70084B2C221A70AFF3008010BD00BF0F
:103E500004B0064007B00640D3EFFF1F6AEFFF1F14
:103E600093EFFF1F03B00640D5EFFF1FD4EFFF1FF6
:103E70006BEFFF1F69EFFF1F0E4B1B68DA0470B575
:103E8000064616D50C4B0D4D1C780134272C88BFE7
:103E9000002401E000F078FE2B78A342FAD0084B12
:103EA0001E55084B01221A70034B1C70064BAC22A6
:103EB0001A7070BD3480044042F0FF1F41F0FF1FB4
:103EC000D8EFFF1FD6EFFF1F03C0064038B54518D7
:103ED000044603E014F8010BFFF7CEFFAC42F9D122
:103EE00038BDFFFF10B5044C01E000F04DFE237813
:103EF000002BFAD110BD00BFD6EFFF1F044B18787E
:103F0000044B1B78984238BF4030C01A704700BF3E
:103F100040F0FF1FD7EFFF1F084B094A19781378AD
:103F2000994208D00133DBB23F2B88BF00230549FB
:103F3000C85C137070474FF0FF30704740F0FF1FB0
:103F4000D7EFFF1F00F0FF1F054B1A78054B1B78BA
:103F50009A4202D0044AD05C70474FF0FF3070475D
:103F600040F0FF1FD7EFFF1F00F0FF1F10B5234BDE
:103F70001B7803F02003DBB27BB1214B214A187878
:103F8000137821490133DBB209783F2B88BF002326
:103F90008B4202D01D49C85413701D490B78184636
:103FA0005BB2002B16DA154B1B781B0612D5194B8A
:103FB000194A1C7813789C4202D16C230B7009E0DB
:103FC0000133DBB2272B88BF00231449CC5C0C499A
:103FD0000C70137000F04003DBB25BB1074B1B7831
:103FE00003F04003DBB22BB10D4B00221A70084BDB
:103FF0002C221A70AFF3008010BD00BF04C0064031
:1040000007C0064040F0FF1FD7EFFF1F00F0FF1F63
:1040100003C0064042F0FF1F41F0FF1FD8EFFF1F13
:10402000D6EFFF1F1FB572B6124B70221A70124ADC
:10403000412111700F2102F8011C80221A701A7898
:104040001206FCD562B60D4B01A918680A22FFF7CB
:1040500055FA0B48002301AA9A5C2AB100EB4301F0
:1040600001330A2B4A80F6D10133054A5B001370F5
:1040700005B000BD000002400700024008000240F9
:10408000B0E4FF1FF0B50C4B0C4C1A7842F002055F
:1040900004EBC50682F00102706009481A700678C8
:1040A000002E0CBF8827C82747EA014186F0010689
:1040B00044F835100670F0BDACF0FF1F00E0FF1FA4
:1040C00024F1FF1F431E032B10B510D872B6094A06
:1040D00052F8230010B1416842F82310064A0188C3
:1040E00032F81340611A22F8131062B610BD002096
:1040F00010BD00BF9CF0FF1FECF1FF1F013803282B
:104100000BD8074B53F8203072B6002001E05B68F3
:104110000130002BFBD162B670470020704700BF12
:10412000F0F0FF1F70B572B6184E194C01239A19A2
:1041300012F8012C02F00802D2B2E2B19900144A3E
:1041400054F831502DB902EB431308305860114B2D
:1041500009E041F0010154F8315065B902EBC103A7
:10416000083058600C4B42F831300C4B1A78013A49
:104170001A7062B670BD0133052BD8D162B6074BF9
:1041800000221A70BDE8704000F0C8BB0893000020
:1041900000E0FF1F88004000C80040001AF1FF1F28
:1041A000431E032B30B532D84001194A40F01000AD
:1041B000101872B6174CE25C032A09D8DFE802F047
:1041C000160218050830022213E00830042210E01D
:1041D0001148124A50F8234014B940F8231002E065
:1041E00052F82300416042F823100FE0032200E060
:1041F0000522E25410F0080F01F108030A88436019
:104200000CBF8823C82343EA0243036062B630BD73
:1042100000E0FF1F58F0FF1FF0F0FF1F00F1FF1F2D
:104220002DE9F74FA34EA44C357805F00403DBB21B
:10423000ABB1A24B1B7883B1A14A137823B1013BE8
:10424000DBB2137003B900BE9E4A13782BB1013B59
:10425000DBB213700BB900F075FC0423337005F06A
:104260000802D2B2002A00F07B82974B1B781D090E
:104270004FEA930940F0F98104EBC903586854F8F8
:104280003930C3F38303013B0C2B00F2EB81DFE8F1
:1042900013F0A401A401E901E901E901E901E9013F
:1042A000E901C001E901E901E9010D004368874A1C
:1042B00001685360864B874844F83930864D116059
:1042C000002303600120287089B240F28165A94271
:1042D0002361A36119D8B1F5D06F80F02881B1F5C1
:1042E000817F00F0D88006D8802900F0BE80822926
:1042F00040F03981BDE040F20230814200F0088197
:10430000B1F5A06F40F02F8131E1B1F5106F10D001
:1043100004D8B1F5086F40F02681A0E042F22100F8
:10432000814200F0578100F50070814240F01B810E
:1043300015E19278614B604D1A702B6A180603D50F
:10434000686A083800F0EAFA644A08359542F4D100
:10435000DFF8B091DFF8B0B10025A846CA4655F89D
:10436000090005E04368009300F0D8FA009B184666
:104370000028F7D15A4B4AF8050045F80B00E858D9
:1043800007E042680093019200F0C8FA019A009B8E
:1043900010460028F5D15851524BE850524B23F8A3
:1043A0001800524B18F80320023A032A08D8DFE815
:1043B00002F002040204002200E0012203F80820B7
:1043C00008F101080435B8F1040FC8D1484BDFF8F3
:1043D0003C9100221A7001259846464B05EB0902D4
:1043E000EB1812F8012C9B001A7002F00802D2B2EE
:1043F0003AB300F075FAAB0038B104EB451208305F
:1044000050603D4A44F8332006E044F8330098F801
:104410000030013388F8003000F062FAAB0043F05E
:10442000010338B104EBC30208305060284A44F855
:10443000332006E044F8330098F80030013388F860
:104440000030AA0042F00201013542F003020023CD
:10445000052D44F8313044F83230BED187E0174B97
:10446000264D1B782B70034684E0244D2B706B7017
:104470007FE09288042A00D975E0204D2B706B7084
:104480001F4B9200D3181B7803F00203DBB2002B02
:104490006FD028706DE0918801F07F03042B62DCFF
:1044A000538803B15FE0164A89008A18117821F019
:1044B000020156E08020074000E0FF1F23F1FF1FAC
:1044C000ADF0FF1F25F1FF1F9020074010F1FF1FE7
:1044D000C800400044F0FF1F24F1FF1F68E0FF1FE9
:1044E000F0F0FF1F00F1FF1FECF1FF1F58F0FF1F5E
:1044F0001AF1FF1F30C80110880040001BF1FF1F98
:10450000C02007409CF0FF1F48F0FF1F08930000E9
:10451000918801F07F03042B25DC538803B122E04E
:10452000A04A89008A18117841F0020119E05188E7
:104530009D4B928853F8085CA3F10C009DB133F8B1
:104540000CCC8C4509D133F80ACC944505D1090A25
:1045500003290CBF2B7803890CE00C33EAE7917830
:10456000924A117003E08F4B0F221A7032E01D4601
:1045700000E002238E4AB2F806904B4538BF9946B8
:10458000B9F1400F34BFC8464FF0400828464146B5
:10459000FFF778FDB9EB0809454403D1B8F1400FA6
:1045A00007D017E0B9F1400F34BFC8464FF04008BC
:1045B00000E0C84628464146FFF764FDB9EB08090C
:1045C000454402D1B8F1400F04D17A4B7A4A1D60BC
:1045D000A2F800900122794B43E0754B1A8842F211
:1045E00021039A4211D1764A0023C15C99540133C8
:1045F000072BFAD1724B1B68862B02D1714B0F220D
:104600001A7000200146FFF73DFD6F4B44F839302A
:1046100028E0684BD3F80080B8F1000F18D0DFF81D
:104620009891B9F800A0BAF1400F34BF5546402523
:1046300040462946FFF726FDC5EB0A039BB2A9F8C1
:1046400000300BB9402D01D108EB0503594A136026
:10465000574B1A88B2F5A06F04D100225A709A788D
:104660005A4B1A700122554B6DE004EBC90803F058
:104670000803D8F80420013DD9B2A2F10800EDB238
:10468000002937D000F04AF95148524B50F8251014
:10469000F1B14A6840F8252001F10802C8F8042069
:1046A0005A5D032A0BD8DFE802F002040608032251
:1046B00004E0022202E0052200E004225A5518F02C
:1046C000080F0A880CBF8823C82343EA024342E04C
:1046D0005A5D032A07D8DFE802F0404002040022B6
:1046E00006E0012204E018F0080F0CBF02220322AA
:1046F0005A5532E054F839301B0C22F8083C23B3E9
:1047000022F8061C42F8041C334A344952F825703A
:1047100017B942F8250002E051F825205060304AD0
:1047200041F8250032F815105B1822F8153000F01A
:10473000D7F818B10830C8F8040006E0294B44F84F
:1047400039001A7801321A7007E01F4B264A18F018
:10475000080F08BF134644F839300823337063E567
:10476000E90751D515492048204C02230B70204BF6
:104770001A70204B186098601F481A61D8609A61BF
:104780005C60084B0D2018701C48FF23037000F874
:10479000083C02741A4A13701A4B9F221A700123A4
:1047A0000B704CE0C02007401893000034F1FF1F4D
:1047B00010F1FF1F44F0FF1F18F1FF1F9420074066
:1047C000F4F1FF1FADF0FF1FC80040009820074024
:1047D000F0F0FF1F58F0FF1F9CF0FF1F48F0FF1F75
:1047E000ECF1FF1F1AF1FF1F880040005CF0FF1F73
:1047F000ACF0FF1F00E0FF1FB0F0FF1F8820074054
:104800008C200740842007402B0605D50D4B0D2238
:104810001A70802203F8402C05F00203DBB22BB1A2
:10482000094B1A781A70022203F8082C05F01005BB
:10483000EDB215B1054B10221A70AFF30080BDE840
:10484000FE8F00BFC020074088200740802007401F
:1048500008B5FFF7E7FB00231B491A465A50C81852
:104860000833882B4260F9D1184B1A6842F4802231
:104870001A60174B80221A701978154A0906FBD462
:10488000114B1449C3F307200870C3F307401B0EF4
:1048900008750B76FF2301F81C3C01F8143C01F865
:1048A0008C3C137843F0400313700021012302F87D
:1048B000783C02F80C1C02F8883C074B08221A606E
:1048C000064B10221A7008BD00E0FF1F3480044020
:1048D0000C2107409C20074004E100E0082107402C
:1048E00072B60C4A1168B1FA81F30B2B02D962B689
:1048F000002070474FF0004020FA03F021EA000149
:10490000116062B6044948225343C8180022CA50B5
:1049100042607047C8E4FF1FA0E0FF1F0C4B482215
:10492000C31AB3FBF2F30B2B11D80A4A127822B147
:10493000094A12780AB1FFF7F5BB72B6074A4FF081
:10494000004121FA03F311681943116062B6704700
:10495000A0E0FF1F1AF1FF1F23F1FF1FC8E4FF1F94
:1049600038B5114C23684BB10F4D28684288811827
:1049700001320C7A01888A4212D30CE00B4B1B786F
:1049800013B94FF0FF340CE00320FFF79BFB2060CE
:104990000028E9D1F5E7FFF7C1FF00232B6000E015
:1049A0004280204638BD00BF30F1FF1F23F1FF1FBA
:1049B00010B50C4C23681BB10A4B1B686BB902E0A5
:1049C000094B1B7813B94FF0FF3010BD0320FFF7E0
:1049D00079FB20600028EFD1F5E75A889B18187AF8
:1049E00010BD00BF30F1FF1F23F1FF1F044B98885B
:1049F000044B1B681BB11A885B88D31AC018704718
:104A0000ECF1FF1F30F1FF1F2DE9F8432D4B2E4D28
:104A1000DFF8C08001220C461A7006464BE02B6876
:104A20002BBBDFF8A0904AF2F92798F8003013B9B1
:104A3000244A137014E00420FFF760FB072808D80D
:104A4000012389F80030FFF74BFF286078B989F817
:104A50000000013F1D4B01D01A782AB101221A70C3
:104A60004FF0FF30BDE8F88300F08EF8DDE72968ED
:104A7000164A488800231370C0F14002944238BFA0
:104A8000224600F108078018CF194880A41A02E0D6
:104A9000F05CF85401339342FAD1F6184B883F2B5F
:104AA00006D940230B800420FFF77AFB00232B60FC
:104AB000074B05221A70002CB1D1024B20461C7006
:104AC000BDE8F88326F1FF1F28F1FF1F2CF1FF1F1F
:104AD00025F1FF1F23F1FF1F07B502AB012103F8EA
:104AE000010D1846FFF790FF0EBDFFFFF8B5114B03
:104AF0001B78EBB1104E114B3468114D01271F701C
:104B00004CB1638800272F70042023802146FFF7D3
:104B100047FB376009E0FFF7E3FE014620B10420C0
:104B20002C70FFF73DFB00E02F70044B00221A7041
:104B3000F8BD00BF23F1FF1F28F1FF1F26F1FF1F63
:104B400025F1FF1F38B50D4B1D78ADB90C4C216810
:104B500031B14B8804200B80FFF722FB256038BD64
:104B6000FFF7BEFE014620B10420BDE83840FFF744
:104B700017BB044B01221A7038BD00BF26F1FF1F7E
:104B800028F1FF1F25F1FF1F7047FFFFF8B5164BF7
:104B9000164D1A6842F080721A60154B1A6842F07E
:104BA00001021A60134B2E681C680FE0237A63B170
:104BB00021682F680B68204698472A68E388D21B33
:104BC00012099A42A28088BFE2806469002CEDD16C
:104BD000064B094A1B689B1B1B091380074A118857
:104BE0008B4288BF1380F8BDFCED00E0041000E0AC
:104BF000001000E038F1FF1F3EF1FF1F3CF1FF1FE6
:104C000010B5084614461146FEF762FF204610BD57
:104C1000084608B5FEF732FF012008BDFEF796BF33
:104C2000FEF7AEBFFEF7C4BFFEF79CBF044B0022E9
:104C30001A711A73034A4FF47A7199601A607047B7
:104C400040F1FF1F6893000010B508461446114656
:104C5000FFF766F8204610BD084608B5FFF736F89E
:104C6000012008BDFFF768B8FFF780B8FFF796B8D6
:104C7000FFF76EB8044B00221A711A73034A4FF4FF
:104C80007A7199601A60704750F1FF1F8893000095
:104C900010B5084614461146FFF718F9204610BD16
:104CA000084608B5FFF7E8F8012008BDFFF71AB974
:104CB000FFF732B9FFF748B9FFF720B9044B0022DC
:104CC0001A711A73034A4FF47A7199601A60704727
:104CD00060F1FF1FA893000008B5034B01221A6082
:104CE000024B1B68984708BD0C71034078F1FF1F09
:104CF00008B5034B01221A60024B5B68984708BD58
:104D00001C71034078F1FF1F08B5034B01221A60A4
:104D1000024B9B68984708BD2C71034078F1FF1F38
:104D200008B5034B01221A60024BDB68984708BDA7
:104D30003C71034078F1FF1F054B01221A60054BBF
:104D40001A6822F400021A60034B00221A7070479E
:104D5000007003403C80044074F1FF1F037B01227C
:104D6000591103F01F0302FA03F3084A42F82130F5
:104D70008268002313604178054A5354D15C21B9FD
:104D80000133042BFAD1FFF7D7BF704780E100E071
:104D900070F1FF1F037810B504460BB1FFF7DEFF7B
:104DA0000023237010BD2DE9F041002407460D4675
:104DB00026463B190A2219792846002300F038F8C4
:104DC0002B6880462E211B682846984701344044B2
:104DD000032C0644EDD12846F9790A22002300F07D
:104DE00027F88019BDE8F081044B054A1A600022BB
:104DF0001A715A719A71DA71704700BF88F1FF1FFA
:104E0000C893000008B5FCF77BFBFCF7F5F8FFF74B
:104E1000BBFEFAE707B5054B1B88ADF80430036805
:104E200001A95B68022298470EBD00BFD093000025
:104E3000F0B505468BB022B90368C9B21B68984724
:104E40002CE0012A08BF0A2221B930228DF8252042
:104E5000212413E02124B1FBF2F002FB1011C9B2AE
:104E6000092901D8303100E037310AAF3E1906F880
:104E7000241C014610B1013CE4B2ECE733B1013C23
:104E80000AAAE4B213192D2203F8242C2B6801AFCF
:104E90005B6828463919C4F1220298470BB0F0BD6F
:104EA000002902DA49422D2300E000230A22FFF7FD
:104EB000BFBFFFFFFFFFFFFF2DE9F3470746914606
:104EC0009A4610461946002200239DF8284002F019
:104ED00067F920B10AF1004A4FF0010800E080466E
:104EE00000260022304B0AE0104619462CA3D3E9D5
:104EF000002301F0E3FE013602460B46F6B2A6425D
:104F0000F2D14846514601F027FD0D46044602F015
:104F100097F981464346384649460A22FFF788FFFB
:104F20008046002E37D0484601F052FE072E28BF9B
:104F300007260B4602462946204601F00BFD0136A6
:104F40002E238DF80030F6B24FF001091BE000224D
:104F5000164B01F0B3FE0D46044602F071F902AAA9
:104F600002EB0903C0B200F1300203F8082C01F093
:104F70003FFE09F1010902460B46204629465FFA29
:104F800089F901F0E7FCB145E1D13B6838465B683F
:104F900069464A4698474046BDE8FC87AFF3008023
:104FA0009A9999999999B93F0000E03F00002440EF
:104FB00010B50446FFF7EEFE204610BD0348044935
:104FC000044A0023037002F02FBC00BF90F1FF1FC2
:104FD000B14F000000E4FF1F08461146FFF714BD63
:104FE0000846FFF779BDFFF781BDFFF7E1BCFFF78A
:104FF000B7BCFFF7FBBCFFFF044B00221A711A730A
:10500000034A4FF47A7199601A607047A4F1FF1F48
:10501000E09300000C4B0D4A1B680D48002B08BFA5
:10502000134693FBF0F200FB12330A48424344F26A
:10503000A71000FB03200028B8BF00F10040024B7E
:10504000B8BF013818607047B4F1FF1F24D95B075F
:105050001DF30100ECF4FFFF10B5044630B1FFF77B
:10506000D9FFB0FBF4F303FB140010BD10BD884260
:1050700010B5044603DA081AFFF7EEFF04192046BC
:1050800010BDFFFFFFFFFFFF2DE9F84F89464FF6E8
:10509000FF7129F00044C4F20F4180468C424A4619
:1050A000CA461FDD0023C7F6F0739C4200F3C080A0
:1050B00014BF0023012300280CBF002103F00101CD
:1050C000002940F0B58042F2FB1942F618584B46D1
:1050D000CBF6F979C3F6F973C5F24448002AC8BF84
:1050E0009946ADE04FF6FF73C3F6DB739C4200F3C5
:1050F000BA804FF6FF73C3F61F639C4240F3A4804F
:105100004FF0FF3B42464B464046494601F0D6FD34
:1051100002460B4606460F4601F0D0FD8EA3D3E9AA
:10512000002304460D4601F0C9FD8DA3D3E90023F9
:1051300001F012FC22462B4601F0C0FD8AA3D3E900
:10514000002301F009FC22462B4601F0B7FD88A39D
:10515000D3E9002301F000FC22462B4601F0AEFD0E
:1051600085A3D3E9002301F0F7FB22462B4601F08B
:10517000A5FD83A3D3E9002301F0EEFB32463B46B5
:1051800001F09CFD80A3D3E9002306460F4620468C
:10519000294601F093FD7EA3D3E9002301F0DAFB59
:1051A00022462B4601F08AFD7BA3D3E9002301F0C0
:1051B000D1FB22462B4601F081FD79A3D3E90023E0
:1051C00001F0C8FB22462B4601F078FD76A3D3E917
:1051D000002301F0BFFB22462B4601F06FFDBBF11F
:1051E000FF3F02460B4663D049F2F8343046C0F226
:1051F0000004394604EBCB0B01F0AEFB4B464246B4
:1052000001F05CFDDBE9082301F0A4FB4B464246BC
:1052100001F0A0FB02460B46DBE9000101F09AFB1E
:10522000BAF1000F8046B4BF01F10049894607E09A
:105230004046424649464B4601F08EFB8046894631
:1052400040464946BDE8F88F59A3D3E900234946B3
:1052500001F082FB00230022C3F6F07301F0BEFFD1
:105260000028EDD14CE7494600F0A6F84FF6FF7351
:10527000C3F6F2739C4206460F462ADC4FF6FF73D4
:10528000C3F6E5739C4258DC02460B4601F064FB12
:1052900000230022C3F6F07301F05CFB4FF0000B1B
:1052A00000224FF0804304460D46304639462CE03C
:1052B0003046394601F050FB42464B4601F0FEFCB9
:1052C00002460B464046494601F044FB804689466B
:1052D000B6E747F6FF73C4F203039C4220DC0023C9
:1052E0000022C3F6F8734FF0020B01F033FB0023EA
:1052F0000022C3F6F87304460D463046394601F0E5
:10530000DDFC00230022C3F6F07301F025FB02460A
:105310000B462046294601F0FBFD80468946F1E612
:1053200000210020CBF6F07132463B464FF0030BD4
:1053300001F0EEFD80468946E4E600230022C3F634
:10534000F0734FF0010B01F005FB04460D463046AB
:105350003946D6E7AFF3008011DA22E33AAD903F49
:10536000EB0D76244B7BA93F513DD0A0660DB13F9C
:105370006E204CC5CD45B73FFF8300922449C23F04
:105380000D5555555555D53F2F6C6A2C44B4A2BFC9
:105390009AFDDE522DDEAD3F6D9A74AFF2B0B33F91
:1053A000711623FEC671BC3FC4EB98999999C93F09
:1053B0009C7500883CE4377E21F00041704700BFB7
:1053C00000F0F2B92DE9F04F8BB01F4680468946B8
:1053D000164600F0F9FA4EF2CC4BC1F6FF7B9BF972
:1053E0000030013304460D4604D03046394601F002
:1053F00057F920B9204629460BB0BDE8F08F40464A
:10540000494601F04DF9824620BB3046394600221C
:10541000002301F0BBFE0028ECD09BF9001049F2FC
:1054200038430122C0F200038DE80C000022002363
:10543000B1F1FF3F18BF0229C3F6F073CDF820A0E9
:10544000CDE90289CDE90467CDE906232DD1DDE957
:105450000645CFE7404649460022002301F096FE6C
:1054600000282FD0304639460022002301F08EFE5E
:10547000002861D09BF9002049F23843C0F20003B4
:10548000012100208DE80A00CDE9028900230021D6
:105490000893CDE90467CDE9060132B1002300226B
:1054A000C3F6F073CDE90623D1E7684601F020F991
:1054B000002870D0089B002BC9D002F0C5F9089BCA
:1054C0000360C4E72046294601F0E4F8824600283C
:1054D00066D0204629460022002301F057FE00280E
:1054E00088D04046494601F0D5F8002882D03046A1
:1054F000394601F0CFF800283FF47CAF9BF900203B
:1055000049F238430421C0F2000300208DE80A006C
:1055100000230021022A0893CDE90289CDE904671E
:10552000CDE9060169D0684601F0E2F8002864D0B0
:10553000089B002B8BD0C0E73046394601F0AAF813
:1055400000283FF457AF304639460022002301F0CF
:1055500027FE00283FF44EAF9BF8001049F2384375
:10556000C0F200030122CDE902898DE80C0000237E
:10557000CDE90467002208930023002936D1CDE944
:105580000623684601F0B4F80028D1D102F05CF996
:1055900021230360CCE702F057F92123036089E758
:1055A0004046494601F076F8002892D03046394608
:1055B00001F070F800288CD02046294601F070F8E0
:1055C00000BB9BF8004049F23843C0F200030122BF
:1055D000089000218DE80C000020CDE90289CDE97A
:1055E0000467002C63D1CDE90601CAE70229CFF692
:1055F000F073CDE90623C9D0C3E702F025F92223D1
:10560000036095E79BF9001049F238420320C0F28D
:105610000002CDF820A08DE805004046CDE90289C2
:10562000CDE90467E9B94FF6FF754946002200232A
:105630004FF06044C4F2EF75CDE9064501F0B0FDCE
:1056400000283ED19BF90030022B05D0684601F0BE
:105650004FF800287FF42EAF02F0F6F82223036003
:1056600028E700254946002200230024C7F6F075EC
:10567000CDE9064501F094FD0028E3D00023002287
:10568000C3F6E0733046394601F018FB04460D4678
:1056900001F036F822462B4601F078FD0028D1D1E2
:1056A00000230022CFF6F073CDE90623CAE70246B5
:1056B0000B4601F02DFC022CCDE906013FF466AF4C
:1056C0005FE700230022C3F6E0733046394601F05D
:1056D000F5FA04460D4601F013F822462B4601F078
:1056E00055FD0028AED14FF6FF734FF06042CCF26B
:1056F000EF73CDE90623A5E72DE9F0478AB004460C
:105700000D4600F001FF4EF2CC4AC1F6FF7A9AF93D
:105710000030013306460F460FD02046294600F0E0
:10572000BFFF50B14FF000084FF000092046294656
:1057300042464B4601F034FD20B9304639460AB0A6
:10574000BDE8F0879AF8006049F23C43C0F20003DC
:105750000122CDE904458DE80C000023CDE9024586
:10576000089356B9CDE90689684600F0C1FF70B1CB
:10577000089B8BB9DDE90667DFE7404649464246AC
:105780004B4601F0C5FB022ECDE90601ECD102F03B
:105790005BF821230360EBE702F056F8089B0360F7
:1057A000E8E700BFFFFFFFFF2DE9F04784B00026C8
:1057B0000446CDE90023C7F6F0769DE880100D463B
:1057C000CDE902230246C7F100092CF0004849EA5E
:1057D00007090B4648EAD979B1454FD8C0F1000A0C
:1057E00021F000494AEA000A49EADA7AB24545D886
:1057F0000CF1404CDDF804A00CF5801C5CEA070CB1
:105800005CD04FEAAA7659EA020206F0020646EA9E
:10581000D17640D058EA07074AD00022C7F6F07286
:1058200090455CD00022C7F6F072914540D0C8EB9D
:1058300009084FEA2858B8F13C0F4CDC18F13C0F2E
:10584000ACBF4FF000084FF0010818EADA7873D0C7
:1058500000200021012E6BD0022E5AD004460D46A6
:10586000A6B147A3D3E9002301F074F846A3D3E916
:10587000002301F06FF804460D4607E02046294654
:10588000DDE9022301F068F804460D46204629466A
:1058900004B0BDE8F087032EBCD801A252F826F070
:1058A0008D5800008D580000CF580000C7580000E8
:1058B000002B2ADB36A5D5E90045E7E704B0BDE8B3
:1058C000F047FFF7E1BB34A5D5E90045DEE72EA59B
:1058D000D5E90045DAE72EA1D1E90001BAE7C145D3
:1058E00035D0032E9ED801A252F826F005590000AB
:1058F000FD580000CF580000C758000000244FF0AA
:105900000045C3E700240025C0E725A5D5E90045EB
:10591000BCE71BA3D3E9002301F01CF802460B46A9
:1059200019A1D1E9000101F015F804460D46ADE7D3
:10593000044601F10045A9E7DDE902232046294696
:1059400001F0E6FAFFF738FDFFF79EFB82E7032E32
:10595000AED8DFE806F00E0A060213A5D5E9004529
:1059600094E713A5D5E9004590E713A5D5E90045CF
:105970008CE713A5D5E9004588E700BFAFF30080A9
:10598000075C143326A6A13C182D4454FB21094082
:10599000182D4454FB21F93F182D4454FB2109C014
:1059A000182D4454FB21F9BFD221337F7CD902C08A
:1059B000D221337F7CD90240182D4454FB21E9BF0A
:1059C000182D4454FB21E93F2DE9F04F91B023F00D
:1059D00000478B460D46049157EA020191468246E4
:1059E0001E4604469446804600F08E8000212BF02F
:1059F0000040C7F6F0710290884211DD029901F172
:105A0000404909F5801959EA080840F082800026CB
:105A1000C146C3F6F0764846314611B0BDE8F08F76
:105A200014BF002001200690BAF1000F0CBF002027
:105A300000F001000028E1D18F42DFDC14BF00201C
:105A40000120002A0CBF002100F001010029D5D15E
:105A5000049A5C461D46002A64DB0E91BCF1000FDF
:105A600014D1002840F082800023C3F6F0739F42D7
:105A700000F0B880B5F1804F04BF504659463CD085
:105A80000023C3F6E0739D4200F0C08350465946A0
:105A9000FFF792FC8C46B8F1000F0BD1069B0299E0
:105AA000002908BF43F00103002B76D1C3F6F07341
:105AB000994272D0049B0E994FEAD37808F1FF38CF
:105AC00051EA080100F089800023C4F2E0139F42EC
:105AD00040F3A6800023C4F2F0339F4240F33084A9
